:100000000C942A000C9447000C9447000C94470071
:100010000C9447000C9447000C9447000C94470044
:100020000C9447000C9447000C9447000C94470034
:100030000C9447000C9447000C9447000C94470024
:100040000C9447000C9447000C9447000C94470014
:100050000C94470011241FBECFE5D8E0DEBFCDBF12
:1000600015E0A0E6B0E0E0E3F0E202C005900D92FA
:10007000A639B107D9F715E0A6E9B5E001C01D9290
:10008000AE3AB107E1F70E94F0070C9416100C94F9
:1000900000000F931F93CF93DF9300D000D0CDB714
:1000A000DEB719821A821B821C820E94DE0980E060
:1000B00060E00E94E80980E690E00E940A0A81E080
:1000C00060E00E94E80981E790E00E940A0A82E06D
:1000D00060E00E94E80982E890E00E940A0A83E05A
:1000E00060E00E94E80983E990E00E940A0A00E0CB
:1000F00010E00E947709833409F448C0982F905388
:100100009A30B8F7E1E0F0E0EC0FFD1FE00FF11FCF
:10011000808382E0602F0E94E8098AE20E948C09B5
:100120000F5F1F4F0430110524F3998180917803EC
:10013000981779F49A8180917903981751F49B81EB
:1001400080917A03981729F49C8180917B039817FA
:10015000F9F00E94DE0980E060E00E94E80984EA8C
:1001600090E00E940A0A81E060E00E94E80985EBC5
:1001700090E00E940A0A8FEF93EDA0E38150904037
:10018000A040E1F700C0000080E003C080E001C0B3
:1001900081E00F900F900F900F90DF91CF911F9102
:1001A0000F9108952F923F924F925F926F927F929C
:1001B0008F929F92AF92BF92CF92DF92EF92FF9277
:1001C0000F931F93CF93DF93CDB7DEB729970FB669
:1001D000F894DEBF0FBECDBF809196059091970534
:1001E0000097B1F40E94DE0980E060E00E94E80917
:1001F00086EC90E00E940A0A8FEF93EDA0E3815015
:100200009040A040E1F700C000009EC0870126C0DA
:1002100000E010E00F2EF7EDCF2EF0E0DF2EF02DF6
:100220000F2EFAEDAF2EF0E0BF2EF02D0F2EFCEDCD
:100230008F2EF0E09F2EF02D0F2EFFED6F2EF0E0B1
:100240007F2EF02D0F2EF4EE4F2EF0E05F2EF02DCE
:100250000F2EF7EE2F2EF0E03F2EF02DC801BE013D
:100260006A5F7F4FAE014E5F5F4F9E012F5F3F4F32
:100270000E9437060E94DE0980E060E00E94E809E3
:10028000C6010E940A0A78010894E11CF11CB7011A
:1002900080E090E00E94190AC5010E940A0A60915C
:1002A00096057091970580E090E00E94190A81E020
:1002B00060E00E94E809898190E09C01220F331FD1
:1002C000820F931F880F991F880F991F8C559C4F81
:1002D0000E940A0A82E060E00E94E809C4010E94CC
:1002E0000A0A6E817F81888599850E94970AC301D9
:1002F0000E940A0A83E060E00E94E809C2010E94AD
:100300000A0A6A817B818C819D810E94970AC101C2
:100310000E940A0A0E9477098B3251F48091960557
:100320009091970501970817190708F46FCF96CF9A
:100330008D3239F40115110509F490CF01501040A8
:100340008DCF833409F08ACF29960FB6F894DEBF9B
:100350000FBECDBFDF91CF911F910F91FF90EF9016
:10036000DF90CF90BF90AF909F908F907F906F90D5
:100370005F904F903F902F9008954F925F926F92B1
:100380007F928F929F92AF92BF92CF92DF92EF9225
:10039000FF920F931F93CF93DF9300D000D0CDB780
:1003A000DEB70E94DE0980E060E00E94E8098CEE82
:1003B00090E00E940A0A81E060E00E94E8098DEF67
:1003C00090E00E940A0A82E060E00E94E8098EE064
:1003D00091E00E940A0A83E060E00E94E8098FE150
:1003E00091E00E940A0A0E947709833409F4F5C05B
:1003F00090E00F2EFFECCF2EFFEFDF2EF02DC80E7A
:10040000D91E85E0C816D10408F0E7C00E94DE09B5
:1004100080E060E00E94E8098601000F111FC8011A
:100420008C0D9D1D880F991F880F991F0F2EF4EAC0
:100430006F2EF3E07F2EF02D680E791EC3010E940F
:100440000A0A81E060E00E94E80980E391E00E94EE
:100450000A0AF30160857185828593850E94340EB6
:100460000E94190A87EE90E00E940A0A82E060E08A
:100470000E94E80989E391E00E940A0A83E060E0B3
:100480000E94E8098AE491E00E940A0A80E38983D5
:100490008A838B838C83EE24FF240E947709182F94
:1004A000833409F49AC08D3309F07AC01E141F04F6
:1004B0000CF076C02E010894411C511C882499240C
:1004C000BB24AA2410E000E08B2D9A2DA12FB02F81
:1004D000BC01CD0120E030E040E251E40E941B0F5E
:1004E000162F072FB82EA92ED2016D912D0170E085
:1004F00060537040882777FD8095982F0E94670E83
:100500009B01AC01812F902FAB2DBA2DBC01CD01E9
:100510000E94640DB62EA72E182F092F0894811C57
:10052000911C8E149F0484F28C2D4B2D5A2D612F1B
:10053000702F0E946B070E94DE0980E060E00E943D
:10054000E809C3010E940A0A81E060E00E94E8090C
:1005500089E391E00E940A0A82E060E00E94E809D3
:100560008B2D9A2DA12FB02FBC01CD010E94340EEE
:100570000E94190A8CE591E00E940A0A83E060E07B
:100580000E94E80984E691E00E940A0A8FEF93ED49
:10059000A0E381509040A040E1F700C000001DC0E2
:1005A000812F80538A3008F078CF94E0E916F10467
:1005B0000CF073CFE1E0F0E0EC0FFD1FEE0DFF1D3E
:1005C00010830894E11CF11C6E2D675F82E00E948D
:1005D000E809812F0E948C0960CF0F900F900F9037
:1005E0000F90DF91CF911F910F91FF90EF90DF90CF
:1005F000CF90BF90AF909F908F907F906F905F90C3
:100600004F9008950F931F930E94DE0980E060E0F1
:100610000E94E80985E791E00E940A0A81E060E013
:100620000E94E80986E891E00E940A0A82E060E000
:100630000E94E80987E991E00E940A0A83E060E0ED
:100640000E94E80988EA91E00E940A0A0FEF19E681
:1006500028E1015010402040E1F700C0000083E095
:1006600060E00E94E80989EB91E00E940A0A0E947A
:100670007709833409F469C084E190E00E94470857
:10068000AB01BC0180919E0590919F05A091A005B2
:10069000B091A1058A019B01081B190B2A0B3B0B8A
:1006A000C901B8010E94670E20E030E04AE754E437
:1006B0000E94CC0D262F372FF82FE92F462F572FCA
:1006C000682F792F40934604509347046093480461
:1006D00070934904822F932FAF2FBE2FBC01CD0101
:1006E0000E9484050E94DE0980E060E00E94E80923
:1006F0008AEC91E00E940A0A81E060E00E94E80929
:100700008BED91E00E940A0A82E060E00E94E80915
:100710006091460470914704809148049091490487
:100720000E94340E0E94190A83E060E00E94E809EA
:1007300084E691E00E940A0A8FEF93EDA0E38150D6
:100740009040A040E1F700C000001F910F91089574
:100750000E94DE0980E060E00E94E8098CEE91E0F2
:100760000E940A0A81E060E00E94E8098DEF91E0B2
:100770000E940A0A82E060E00E94E8098EE092E0AE
:100780000E940A0A83E060E00E94E8098FE192E09B
:100790000E940A0A0E947709833439F10E94840872
:1007A00060919E0570919F058091A0059091A10593
:1007B0000E947D050E94DE0980E060E00E94E80959
:1007C00080E392E00E940A0A81E060E00E94E8096A
:1007D00081E492E00E940A0A8FEF93EDA0E381503A
:1007E0009040A040E1F700C0000008950F931F93D0
:1007F000CF93DF93CDB7DEB728970FB6F894DEBF5F
:100800000FBECDBF19821A821B821C820E94DE0994
:1008100080E060E00E94E80982E592E00E940A0A16
:1008200081E060E00E94E80983E692E00E940A0A03
:1008300082E060E00E94E80982E890E00E940A0AF3
:1008400083E060E00E94E80983E990E00E940A0AE0
:1008500000E010E00E947709833409F4A1C0982FCA
:1008600090539A30B8F7E1E0F0E0EC0FFD1FE00F95
:10087000F11F808382E0602F0E94E8098AE20E94D3
:100880008C090F5F1F4F0430110524F30E94DE090D
:1008900080E060E00E94E80984E792E00E940A0A92
:1008A00081E060E00E94E80982E890E00E940A0A84
:1008B0001D821E821F82188600E010E00E947709C8
:1008C000833409F46DC0982F90539A30B8F7E5E05F
:1008D000F0E0EC0FFD1FE00FF11F808381E0602F3F
:1008E0000E94E8098AE20E948C090F5F1F4F0430C2
:1008F000110524F389819D81891761F42A819E81E4
:10090000291741F42B819F81291721F42C81988587
:100910002917E1F00E94DE0980E060E00E94E8090A
:1009200085E892E00E940A0A81E060E00E94E809FE
:1009300086E992E00E940A0A8FEF93EDA0E38150CE
:100940009040A040E1F700C000002AC080937803E7
:100950008A81809379038B8180937A038C81809341
:100960007B0388E793E00E948B050E94DE0980E00C
:1009700060E00E94E80987EA92E00E940A0A81E0AA
:1009800060E00E94E80984E691E00E940A0A8FEF85
:1009900093EDA0E381509040A040E1F700C000003B
:1009A00028960FB6F894DEBF0FBECDBFDF91CF9172
:1009B0001F910F9108950E94DE0980E060E00E947F
:1009C000E80988EB92E00E940A0A81E060E00E9458
:1009D000E80989EC92E00E940A0A82E060E00E9445
:1009E000E8098AED92E00E940A0A83E060E00E9432
:1009F000E8098BEE92E00E940A0A0E9477098D3383
:100A0000E9F40E947B060E94DE0980E060E00E941B
:100A1000E8098CEF92E00E940A0A81E060E00E94FF
:100A2000E8098DE093E00E940A0A8FEF93EDA0E3BE
:100A300081509040A040E1F700C0000008950E945E
:100A4000DE0980E060E00E94E8098EE193E00E9408
:100A50000A0A81E060E00E94E8098FE293E00E94C8
:100A60000A0A82E060E00E94E80980E493E00E94C4
:100A70000A0A83E060E00E94E80981E593E00E94B1
:100A80000A0A0E9477098333B1F0843338F4813342
:100A900061F0823368F48A3279F519C0853389F0C0
:100AA000853360F0863341F50FC00E94D20008956F
:100AB0000E94BD0108950E94020308950E94A803A8
:100AC00008950E94F60308950E94DB040895109291
:100AD0009D050E94DE0980E060E00E94E80987E64B
:100AE00093E00E940A0A8FEF9EE9A4E281509040B1
:100AF000A040E1F700C000000895AB01BC0180E018
:100B000090E00E94F40F0895AB01BC0184E090E0F6
:100B10000E94F40F08950F931F93CF93DF93082F34
:100B2000192FC8E0D0E0F80161918F01CE010E9439
:100B3000E30F2196CC30D105B1F7DF91CF911F9112
:100B40000F9108950F931F93CF93DF93082F192FC1
:100B5000C8E0D0E0CE010E94CF0FF80181938F0151
:100B60002196CC30D105B1F7DF91CF911F910F9134
:100B700008958F929F92AF92BF92CF92DF92EF92A1
:100B8000FF920F93CF93DF936B017C0149015A01D0
:100B900080919A0590919B05EC01CC0FDD1FC80F49
:100BA000D91FCC0FDD1FCC0FDD1FCE018C96B701F6
:100BB000A6010E94F40FCE01C096B501A4010E94C7
:100BC000F40FCE01C496602F0E94E30F80919A0526
:100BD00090919B05019690939B0580939A058E3486
:100BE000910520F010929B0510929A058091960530
:100BF000909197058E34910588F080919805909199
:100C00009905019690939905809398058E349105E6
:100C100050F0109299051092980505C00196909396
:100C200097058093960560919A0570919B058CE0DD
:100C300090E00E94001060919805709199058EE0F7
:100C400090E00E940010609196057091970580E1F8
:100C500090E00E940010DF91CF910F91FF90EF90F4
:100C6000DF90CF90BF90AF909F908F900895CF92DC
:100C7000DF92EF92FF920F931F93CF93DF938B013D
:100C80007A0169012091980530919905820F931F8F
:100C90006EE470E00E947E0F9C01220F331F820FD2
:100CA000931FEC01CC0FDD1FCC0FDD1FCE018C9606
:100CB0000E94D70FDC01CB01F80180839183A283CE
:100CC000B383CE01C0960E94D70FDC01CB01F701A0
:100CD00080839183A283B383CE01C4960E94CF0FF9
:100CE000F6018083DF91CF911F910F91FF90EF90DC
:100CF000DF90CF90089510929B0510929A05109264
:100D000099051092980510929705109296058CE01F
:100D100090E060E070E00E9400108EE090E060E003
:100D200070E00E94001080E190E060E070E00E94BE
:100D300000100895EF92FF920F931F93CF93DF93CC
:100D4000CDB7DEB768970FB6F894DEBF0FBECDBF44
:100D500081E3898382E38A8383E38B8384E38C83C7
:100D6000CE0101960E948B056FE872E480E192E467
:100D70000E94840560E070E0CB010E947D05DE01E9
:100D80001596ECE7F3E084E101900D928150E1F7D4
:100D90000F2EF7E1EF2EFF24F02D00E010E0C80148
:100DA000429660E00E94E30FF801EE0FFF1FEE0F86
:100DB000FF1F85E090E08C0F9D1FE80FF91F408119
:100DC000518162817381C7010E94F40F0F5F1F4F31
:100DD00084E090E0E80EF91E0530110501F70E944D
:100DE0007B0668960FB6F894DEBF0FBECDBFDF91CD
:100DF000CF911F910F91FF90EF90089580E090E0C8
:100E00000E94D70FDC01CB0180939E0590939F0534
:100E1000A093A005B093A10584E090E00E94D70FB5
:100E2000DC01CB018093460490934704A0934804CF
:100E3000B093490488E793E00E94A2058CE090E01B
:100E40000E94DD0F90939B0580939A058EE090E0C1
:100E50000E94DD0F909399058093980580E190E0C2
:100E60000E94DD0F90939705809396050E943907A5
:100E70000895EF92FF920F931F93CF93DF930CEAA5
:100E800013E00F2EF7E1EF2EFF24F02DC2E1D0E0AA
:100E9000CE010E94CF0F813051F4C7010E94D70FBD
:100EA000DC01CB01F80180839183A283B383219677
:100EB00084E090E0E80EF91E045F1F4FC731D105B2
:100EC00039F7DF91CF911F910F91FF90EF90089527
:100ED0000E9439070895CF93DF93C82FD0E0FE0119
:100EE000EE0FFF1FEC0FFD1FEE0FFF1FEE0FFF1F9A
:100EF000EC55FC4F4087518762877387CE01880F7E
:100F0000991F880F991F47960E94F40FCE014296B1
:100F100061E00E94E30FDF91CF910895CF93DF93BB
:100F2000CDB7DEB764970FB6F894DEBF0FBECDBF66
:100F3000DE011196E0E9F3E094E101900D92915009
:100F4000E1F790E0FC01EE0FFF1FE80FF91FEE0F35
:100F5000FF1FEE0FFF1FEC55FC4FDC01AA0FBB1F5C
:100F6000AA0FBB1FAC0FBD1F11964D915D916D91E6
:100F70007C9114974087518762877387429660E01F
:100F80000E94E30F64960FB6F894DEBF0FBECDBF8C
:100F9000DF91CF91089520E030E04AE754E40E94C9
:100FA000CC0DAB01BC0180919C0590E0FC01EE0FE3
:100FB000FF1FE80FF91FEE0FFF1FEE0FFF1FEC558D
:100FC000FC4FCB01BA0120853185428553850E94B3
:100FD0001B0F462F572F682F792FCB01BA01089589
:100FE0000E949C098FE798E3A1E081509040A040C7
:100FF000E1F700C000000E94E40A8BE290E00E944A
:10100000CF0F8A3A39F00E949A068BE290E06AEAA2
:101010000E94E30F0E94FE060E941E080E9416090D
:101020000E942E0B0E94840880919D05882319F44C
:101030000E941F0CF9CF0E941F05F6CFD098D19ABD
:10104000D99808950F931F93C899FECF88E190E037
:1010500000E010E09801D99A0000000F111F221F34
:10106000331FC89B04C00F5F1F4F2F4F3F4FD998AE
:101070000000019781F7D99A0000D99827FD3F6FAA
:10108000602F712F822F932F1F910F910895CF9270
:10109000DF92EF92FF920F931F93CF93DF938C0118
:1010A00018161906C4F4C0E0D0E0CC24DD24760183
:1010B0000E942208DC01CB01C80ED91EEA1EFB1ECD
:1010C00083EC99E00197F1F700C000002196C0176A
:1010D000D10771F703C0CC24DD24760198014427A1
:1010E00037FD4095542FC701B6010E94920F622F21
:1010F000732F842F952FDF91CF911F910F91FF9028
:10110000EF90DF90CF9008950E94DE0980E060E0CC
:101110000E94E80980EE93E00E940A0A81E060E004
:101120000E94E80981EF93E00E940A0A82E060E0F1
:101130000E94E80982E094E00E940A0A83E060E0ED
:101140000E94E80983E194E00E940A0A84E190E0A9
:101150000E944708DC01CB0180939E0590939F0578
:10116000A093A005B093A1050E94DE0980E060E095
:101170000E94E80984E294E00E940A0A81E060E0AB
:101180000E94E80985E394E00E940A0A8FE79AE149
:10119000A6E081509040A040E1F700C00000089513
:1011A0000F931F93CF93DF9383E090E00E94470853
:1011B000AB01BC0180919E0590919F05A091A00577
:1011C000B091A1058A019B01081B190B2A0B3B0B4F
:1011D000C901B8010E94670E20914604309147046E
:1011E00040914804509149040E94CC0D062F172FBE
:1011F000D82FC92F862F912FAD2FBC2FBC01CD0129
:1012000020E030E0A9010E94C80D882324F400E00A
:1012100010E0D0E0C0E0802F912FAD2FBC2FBC019B
:10122000CD01DF91CF911F910F91089517BA8FE0F3
:1012300088BB089540E050E060E170E0E0E0F0E05D
:10124000CB01042E02C0880F991F0A94E2F787BBD6
:1012500080958F6088BB83E08A95F1F700009F013D
:1012600086B390E0022E02C0959587950A94E2F726
:1012700080FD30C087E893E10197F1F700C00000DE
:1012800086B390E0022E02C0959587950A94E2F706
:1012900080FD20C061E070E0022E02C0660F771F63
:1012A0000A94E2F786B390E0862397230097D1F360
:1012B00087E893E10197F1F700C00000F901EE0F14
:1012C000FF1FEE0FFF1F4E0F5F1FFA01E65BFB4F84
:1012D000808108952F5F3F4F2430310509F64F5F1D
:1012E0005F4F4430510509F0ABCF80E008950E9474
:1012F0001A098823E1F308959098919885BB929AF2
:1013000083E08A95F1F70000929881EE94E00197CE
:10131000F1F700C000000895909A919885BB929AC9
:1013200083E08A95F1F70000929881EE94E00197AE
:10133000F1F700C0000008958FEF84BB81B3876090
:1013400081BB87EA91E60197F1F700C0000088E3CE
:101350000E947C0983EC99E00197F1F700C000003E
:1013600088E30E947C0983EC99E00197F1F700C0C3
:10137000000088E30E947C0983EC99E00197F1F773
:1013800000C000008CE00E947C0981EE94E001978F
:10139000F1F700C0000086E00E947C0981EE94E035
:1013A0000197F1F700C0000081E00E947C0983EC06
:1013B00099E00197F1F700C00000089581E00E94D4
:1013C0007C0983EC99E00197F1F700C000000895D3
:1013D000CF93DF9300D000D0CDB7DEB790E89983EC
:1013E00090EC9A8394E99B8394ED9C83FE01E80F33
:1013F000F11D8181860F0E947C0983EF91E00197A6
:10140000F1F700C000000F900F900F900F90DF9148
:10141000CF910895CF93DF93EC018881882331F039
:1014200021960E948C0989918823D9F7DF91CF9169
:1014300008956F927F928F929F92AF92BF92CF92B8
:10144000DF92EF92FF920F931F93CF93DF93CDB76D
:10145000DEB72C970FB6F894DEBF0FBECDBF6B0181
:101460007C01611571058105910521F480E30E94DD
:101470008C0948C099235CF48DE20E948C09F09499
:10148000E094D094C094C11CD11CE11CF11C1C142C
:101490001D041E041F04B4F58E010F5F1F4F662448
:1014A00077240F2EFAE08F2EF0E09F2EF0E0AF2E83
:1014B000F0E0BF2EF02DC701B601A50194010E94F6
:1014C000920F605DF80161938F010894611C711C9B
:1014D000C22ED32EE42EF52E1C141D041E041F0450
:1014E00054F3C301019772F08E010F5F1F4F680123
:1014F000C60CD71CF60182916F010E948C09C016A0
:10150000D106C1F72C960FB6F894DEBF0FBECDBF43
:10151000DF91CF911F910F91FF90EF90DF90CF90CF
:10152000BF90AF909F908F907F906F900895CF92D3
:10153000DF92EF92FF920F931F93CF93DF936B0194
:101540007C010E94340ED62FC72F182F092F0E941E
:10155000670E9B01AC01C701B6010E94630D20E03C
:1015600030E048EC52E40E941B0F0E94340EC62E5D
:10157000D72EE82EF92EFF2044F4F094E094D09476
:10158000C094C11CD11CE11CF11C6D2F7C2F812F3C
:10159000902F0E94190A8EE20E948C098AE0C816D8
:1015A000D104E104F1041CF480E30E948C09C7011A
:1015B000B6010E94190ADF91CF911F910F91FF9000
:1015C000EF90DF90CF9008958B98939A8FE19EE4EF
:1015D0000197F1F700C0000083993FC00E94DE0927
:1015E00080E060E00E94E8098AE594E00E940A0A2F
:1015F00081E060E00E94E8098BE694E00E940A0A1C
:1016000082E060E00E94E8098CE794E00E940A0A08
:1016100083E060E00E94E8098DE894E00E940A0AF5
:101620008BE290E06FEF0E94E30F839BFECF0E945E
:10163000DE0980E060E00E94E8098EE994E00E9403
:101640000A0A8FEF9EE9A4E281509040A040E1F7A2
:1016500000C00000E0E0F0E0099508950E94DE0976
:1016600080E060E00E94E8098FEA94E00E940A0AA4
:1016700081E060E00E94E80981EC94E00E940A0A9F
:1016800082E060E00E94E80982ED94E00E940A0A8C
:1016900083E060E00E94E80980EE94E00E940A0A7C
:1016A0008FEF9DE3A9E481509040A040E1F700C096
:1016B000000008954F925F926F927F928F929F9257
:1016C000AF92BF92CF92DF92EF92FF920F931F9350
:1016D000CF93DF936B017C0149015A010E94DE091F
:1016E00080E060E00E94E80981EF94E00E940A0A2D
:1016F00081E060E00E94E80910E0E801CC0FDD1F06
:10170000CE01800F911F880F991F880F991F8C554C
:101710009C4F0E940A0A82E060E00E94E80982E091
:1017200095E00E940A0AC701B60120E030E04AE7CE
:1017300054E40E94CC0D0E94970A85E095E00E9437
:101740000A0A83E060E00E94E8090F2EF9E06F2E9C
:10175000F5E07F2EF02DC3010E940A0AC501B401F5
:101760000E94970A0F2EF0E14F2EF5E05F2EF02D2C
:10177000C2010E940A0A8FEF93EDA0E381509040CE
:10178000A040E1F700C000000E94DE0980E060E0B8
:101790000E94E8090C0F1D1FF801EE0FFF1FEE0F4E
:1017A000FF1FEC55FC4F60857185828593850E94F3
:1017B000340E0E94190A85E195E00E940A0A81E030
:1017C00060E00E94E8098DE195E00E940A0AC701E5
:1017D000B6010E94970A85E295E00E940A0A82E01B
:1017E00060E00E94E809C3010E940A0AC501B40131
:1017F0000E94970AC2010E940A0A83E060E00E94E8
:10180000E80988E295E00E940A0A8FEF9DE3A9E4C7
:1018100081509040A040E1F700C00000DF91CF91DF
:101820001F910F91FF90EF90DF90CF90BF90AF90FE
:101830009F908F907F906F905F904F900895CF9280
:10184000DF92EF92FF920F930E941A09982F915303
:10185000953038F490939C051092A3051092A20540
:101860002CC18D33C9F5C090A405D090A505E0909A
:10187000A605F090A705C701B60120E030E040E8DA
:101880005FE30E94170F181614F52091A8053091F8
:10189000A9054091AA055091AB05C701B601009179
:1018A0009C050E94B9056091A4057091A5058091E1
:1018B000A6059091A7052091A8053091A905409112
:1018C000AA055091AB0500919C050E945A0B1092FD
:1018D000A3051092A205F1C0833439F40E94840854
:1018E0001092A3051092A205E8C08A3269F5809192
:1018F000A2059091A30501969093A3058093A2055C
:10190000823091050CF4D9C01092A3051092A20563
:101910000E944900009709F4D0C081E080939D05A2
:101920000E94DE0980E060E00E94E80989E395E01A
:101930000E940A0A8FEF9EE9A4E281509040A040E5
:10194000E1F700C00000B9C08091AC059091AD05F1
:1019500001969093AD058093AC0585309105D4F048
:101960001092AD051092AC050E94D0086093A405BA
:101970007093A5058093A6059093A7050E94CB07B9
:10198000DC01CB018093A8059093A905A093AA053B
:10199000B093AB0580E060E00E94E80980919C056F
:1019A00090E09C01220F331F820F931F880F991F15
:1019B000880F991F8C559C4F0E940A0A8AE495E073
:1019C0000E940A0A80919C0590E0FC01EE0FFF1F27
:1019D0008E0F9F1FFC01EE0FFF1FEE0FFF1FEC5538
:1019E000FC4F60857185828593850E94340E0E942C
:1019F000190A8CE495E00E940A0A81E060E00E94E6
:101A0000E80982E095E00E940A0A6091A4057091BD
:101A1000A5058091A6059091A70520E030E04AE752
:101A200054E40E94CC0D0E94970A81E595E00E9443
:101A30000A0A82E060E00E94E80989E095E00E94DD
:101A40000A0A6091A8057091A9058091AA05909154
:101A5000AB050E94970A8AE595E00E940A0A83E096
:101A600060E00E94E809C090A405D090A505E09030
:101A7000A605F090A705C701B60120E030E040E8D8
:101A80005FE30E94C80D88232CF483E695E00E9452
:101A90000A0A13C0C701B60120E030E44CE955E45E
:101AA0000E94170F88232CF084E795E00E940A0A11
:101AB00004C085E895E00E940A0A0F91FF90EF901C
:101AC000DF90CF9008955058BB27AA270ED075C13C
:101AD00066D130F06BD120F031F49F3F11F41EF449
:101AE0005BC10EF4E095E7FB51C1E92F77D180F39C
:101AF000BA17620773078407950718F071F49EF50B
:101B00008FC10EF4E0950B2EBA2FA02D0B01B90159
:101B100090010C01CA01A0011124FF27591B99F063
:101B2000593F50F4503E68F11A16F040A22F232F6F
:101B3000342F4427585FF3CF469537952795A795BF
:101B4000F0405395C9F77EF41F16BA0B620B730B66
:101B5000840BBAF09150A1F0FF0FBB1F661F771FD7
:101B6000881FC2F70EC0BA0F621F731F841F48F48C
:101B7000879577956795B795F7959E3F08F0B3CF12
:101B80009395880F08F09927EE0F979587950895FC
:101B9000D9D008F481E008950CD00FC107D140F0EE
:101BA000FED030F021F45F3F19F0F0C0511139C17F
:101BB000F3C014D198F39923C9F35523B1F3951BBE
:101BC000550BBB27AA2762177307840738F09F5F5E
:101BD0005F4F220F331F441FAA1FA9F333D00E2ECD
:101BE0003AF0E0E830D091505040E695001CCAF73A
:101BF00029D0FE2F27D0660F771F881FBB1F2617FF
:101C000037074807AB07B0E809F0BB0B802DBF01D1
:101C1000FF2793585F4F2AF09E3F510568F0B6C0EA
:101C200000C15F3FECF3983EDCF3869577956795AE
:101C3000B795F7959F5FC9F7880F911D9695879582
:101C400097F90895E1E0660F771F881FBB1F6217A1
:101C500073078407BA0720F0621B730B840BBA0B5F
:101C6000EE1F88F7E095089504D06894B111D9C0AB
:101C70000895BCD088F09F5790F0B92F9927B7519D
:101C8000A0F0D1F0660F771F881F991F1AF0BA9540
:101C9000C9F712C0B13081F0C3D0B1E00895C0C01F
:101CA000672F782F8827B85F39F0B93FCCF3869536
:101CB00077956795B395D9F73EF490958095709593
:101CC00061957F4F8F4F9F4F0895E89409C097FB10
:101CD0003EF490958095709561957F4F8F4F9F4F03
:101CE0009923A9F0F92F96E9BB279395F695879547
:101CF00077956795B795F111F8CFFAF4BB0F11F40A
:101D000060FF1BC06F5F7F4F8F4F9F4F16C08823B0
:101D100011F096E911C0772321F09EE8872F762FE6
:101D200005C0662371F096E8862F70E060E02AF027
:101D30009A95660F771F881FDAF7880F9695879513
:101D400097F90895990F0008550FAA0BE0E8FEEFE8
:101D500016161706E807F907C0F012161306E4076F
:101D6000F50798F0621B730B840B950B39F40A2668
:101D700061F0232B242B252B21F408950A2609F446
:101D8000A140A6958FEF811D811D089597F99F674A
:101D900080E870E060E008959FEF80EC08950024F3
:101DA0000A941616170618060906089500240A94C0
:101DB00012161306140605060895092E0394000C46
:101DC00011F4882352F0BB0F40F4BF2B11F460FFD5
:101DD00004C06F5F7F4F8F4F9F4F089557FD9058FE
:101DE000440F551F59F05F3F71F04795880F97FBDF
:101DF000991F61F09F3F79F0879508951216130699
:101E00001406551FF2CF4695F1DF08C016161706C7
:101E10001806991FF1CF86957105610508940895FC
:101E2000E894BB2766277727CB0197F908958ADFC7
:101E300008F48FEF08950BD0C0CFB1DF28F0B6DFE4
:101E400018F0952309F0A2CFA7CF1124EACFC6DF5F
:101E5000A0F3959FD1F3950F50E0551F629FF001BD
:101E6000729FBB27F00DB11D639FAA27F00DB11D16
:101E7000AA1F649F6627B00DA11D661F829F22279F
:101E8000B00DA11D621F739FB00DA11D621F839F26
:101E9000A00D611D221F749F3327A00D611D231FFC
:101EA000849F600D211D822F762F6A2F11249F574A
:101EB00050408AF0E1F088234AF0EE0FFF1FBB1F6D
:101EC000661F771F881F91505040A9F79E3F51050C
:101ED00070F05CCFA6CF5F3FECF3983EDCF38695C5
:101EE00077956795B795F795E7959F5FC1F7FE2BB7
:101EF000880F911D9695879597F90895AA1BBB1B8E
:101F000051E107C0AA1FBB1FA617B70710F0A61BF9
:101F1000B70B881F991F5A95A9F780959095BC011A
:101F2000CD01089597FB092E05260ED057FD04D04C
:101F300014D00AD0001C38F4509540953095219566
:101F40003F4F4F4F5F4F0895F6F7909580957095EE
:101F500061957F4F8F4F9F4F0895A1E21A2EAA1BC4
:101F6000BB1BFD010DC0AA1FBB1FEE1FFF1FA21749
:101F7000B307E407F50720F0A21BB30BE40BF50B46
:101F8000661F771F881F991F1A9469F760957095CF
:101F9000809590959B01AC01BD01CF010895E19919
:101FA000FECF9FBB8EBBE09A99278DB30895A6E123
:101FB000B0E044E050E00C940810A8E1B0E042E04A
:101FC00050E00C940810262FE199FECF9FBB8EBBEA
:101FD000E09A01970DB2021631F02DBB0FB6F894BE
:101FE000E29AE19A0FBE08950396272F0E94E40F0C
:101FF0000E94E30F252F0E94E40F242F0C94E40F7E
:102000000196272F0E94E40F0C94E30FDC01CB0113
:10201000FC01E199FECF06C0FFBBEEBBE09A319612
:102020000DB20D9241505040B8F70895F894FFCF8B
:10203000202041444D494E204C4F47494E202020FE
:1020400000456E7465722070617373776F72643AC5
:1020500020005F5F5F5F20202020202020202020A4
:10206000202000433D43616E63656C2020202020CA
:10207000202020002057726F6E6720706173737785
:102080006F72642100204163636573732064656E21
:10209000696564202000204E6F20686973746F7238
:1020A00079207965742000543A002F00573A0020B7
:1020B00067202000503A00204547500053656C656A
:1020C00063742066727569743A20202000313D41A6
:1020D00070706C6520323D42616E616E6100333D0F
:1020E0004F72616E6765343D47726170657300358C
:1020F0003D4D616E676F20433D4261636B20200060
:1021000043757272656E743A004E6577207072691D
:1021100063653A20202020202000433D43616E6308
:10212000656C203D436F6E6669726D0020454750B7
:102130002F6B6700536176656421202020202020CA
:10214000202020200043616C6962726174696F6EA7
:10215000202020202000506C61636520316B6720B7
:10216000776569676874006F6E207363616C6520C2
:1021700020202020202020005072657373203D20F5
:102180007768656E202020200072656164792E2EAC
:102190002E20202020202020200043616C696272C4
:1021A0006174656421202020202000466163746FE3
:1021B000723A2020202020202020200053657474B3
:1021C000696E67205A65726F202020200052656D6D
:1021D0006F766520616C6C202020202020007765C0
:1021E000696768742066726F6D202020202000735C
:1021F00063616C65207072657373203D2020200040
:102200005A65726F207365742120202020202020C1
:1022100000536176656420746F206D656D6F72790F
:1022200020004E65772070617373776F72643A2077
:10223000202000456E7465722034206469676974DB
:1022400073202000436F6E6669726D3A2020202053
:10225000202020200050617373776F7264732064B4
:102260006F6E742020006D61746368212054727950
:1022700020616761696E0050617373776F726420CB
:102280006368616E67656400436C656172206869AC
:1022900073746F72793F202000414C4C206461744C
:1022A00061206C6F7374212020003D20636F6E6687
:1022B00069726D2020202020202000432063616E61
:1022C00063656C2020202020202020004869737442
:1022D0006F727920636C65617265642100416C6C7A
:1022E00020736C6F74732066726565202000202057
:1022F00041444D494E204D454E552020202000316F
:102300003D4869737420323D5072696365732000E3
:10231000333D43616C696220343D5A65726F202001
:1023200000353D5061737320363D436C656172200A
:102330002A3D45786974002045786974696E672084
:1023400041646D696E202000313233340000C84191
:10235000000070410000A0410000344200000C4227
:102360000000C841000070410000A041000034425C
:1023700000000C424170706C652020200000C841B4
:1023800042616E616E612020000070414F72616E8B
:10239000676520200000A0414772617065732020AE
:1023A000000034424D616E676F20202000000C4217
:1023B000506C6561736520776169742E2E2E202024
:1023C0000043616C63756C6174696E67207A657235
:1023D0006F00446F206E6F7420746F7563682020E7
:1023E000202000746865207363616C6521202020C3
:1023F000202020005A65726F2073657421202020F0
:102400002020202000506C61636520776569676833
:10241000742E2E2E20008F4210423738392F34353B
:10242000362A3132332D43303D2B20464143544F21
:1024300052592052455345542020002052656D6F5B
:102440007665206A756D70657220200020746F209B
:10245000636F6E74696E7565202020200020202037
:10246000202020202020202020202020200020208C
:1024700052657374617274696E672E2E2E2000206F
:1024800020776569676874205363616C652020203C
:1024900000202041546D6567613332207631202061
:1024A0002000202042793A207465616D20202000B0
:1024B00020205374617274696E672E2E2E202020A6
:1024C0000020204672756974205363616C6520207A
:1024D0002000573A00206B6700546F74616C3A001B
:1024E0002045475000204547502F6B6700576569CE
:1024F0006768743A0020670020205468616E6B2082
:10250000796F752120202020002057656C636F6D46
:10251000652041646D696E212000200045475020F0
:1025200000206B67202020202000204547502020DD
:10253000202000456D70747920312D35206672752C
:102540006974200020202121204F5645524C4F41D4
:102550004420212100537461626C65203D20746F1A
:06256000207361766500A6
:00000001FF
