:100000000C942A000C9447000C9447000C94470071
:100010000C9447000C9447000C9447000C94470044
:100020000C9447000C9447000C9447000C94470034
:100030000C9447000C9447000C9447000C94470024
:100040000C9447000C9447000C9447000C94470014
:100050000C94470011241FBECFE5D8E0DEBFCDBF12
:1000600015E0A0E6B0E0E0E2F0E202C005900D92FB
:10007000A43AB107D9F715E0A4EAB5E001C01D9292
:10008000AC3BB107E1F70E94EE070C940E100C9404
:1000900000000F931F93CF93DF9300D000D0CDB714
:1000A000DEB719821A821B821C820E94DC0980E062
:1000B00060E00E94E60980E690E00E94020A81E08A
:1000C00060E00E94E60981E790E00E94020A82E077
:1000D00060E00E94E60982E890E00E94020A83E064
:1000E00060E00E94E60983E990E00E94020A00E0D5
:1000F00010E00E947509833409F448C0982F90538A
:100100009A30B8F7E1E0F0E0EC0FFD1FE00FF11FCF
:10011000808382E0602F0E94E6098AE20E948A09B9
:100120000F5F1F4F0430110524F3998180918503DF
:10013000981779F49A8180918603981751F49B81DE
:1001400080918703981729F49C81809188039817E0
:10015000F9F00E94DC0980E060E00E94E60984EA90
:1001600090E00E94020A81E060E00E94E60985EBCF
:1001700090E00E94020A8FEF93EDA0E3815090403F
:10018000A040E1F700C0000080E003C080E001C0B3
:1001900081E00F900F900F900F90DF91CF911F9102
:1001A0000F9108952F923F924F925F926F927F929C
:1001B0008F929F92AF92BF92CF92DF92EF92FF9277
:1001C0000F931F93CF93DF93CDB7DEB729970FB669
:1001D000F894DEBF0FBECDBF8091A4059091A50518
:1001E0000097B1F40E94DC0980E060E00E94E6091B
:1001F00086EC90E00E94020A8FEF93EDA0E381501D
:100200009040A040E1F700C000009CC0870126C0DC
:1002100000E010E00F2EF7EDCF2EF0E0DF2EF02DF6
:100220000F2EFAEDAF2EF0E0BF2EF02D0F2EFCEDCD
:100230008F2EF0E09F2EF02D0F2EFFED6F2EF0E0B1
:100240007F2EF02D0F2EF4EE4F2EF0E05F2EF02DCE
:100250000F2EF7EE2F2EF0E03F2EF02DC801BE013D
:100260006A5F7F4FAE014E5F5F4F9E012F5F3F4F32
:100270000E9435060E94DC0980E060E00E94E609E9
:10028000C6010E94020A78010894E11CF11CB70122
:1002900080E090E00E94110AC5010E94020A60916C
:1002A000A4057091A50580E090E00E94110A81E00C
:1002B00060E00E94E609898190E09C01220F331FD3
:1002C000820F931F880F991F880F991F8F549C4F7F
:1002D0000E94020A82E060E00E94E609C4010E94D6
:1002E000020A6E817F81888599850E948F0AC301E9
:1002F0000E94020A83E060E00E94E609C2010E94B7
:10030000020A6A817B818C819D810E948F0AC101D2
:100310000E94020A0E947509833451F48091A40559
:100320009091A50501970817190708F46FCF0AC027
:10033000823409F093CF0115110509F48FCF0150D4
:1003400010408CCF29960FB6F894DEBF0FBECDBFFC
:10035000DF91CF911F910F91FF90EF90DF90CF90A1
:10036000BF90AF909F908F907F906F905F904F90D5
:100370003F902F9008954F925F926F927F928F924D
:100380009F92AF92BF92CF92DF92EF92FF920F9324
:100390001F93CF93DF9300D000D0CDB7DEB70E947C
:1003A000DC0980E060E00E94E6098CEE90E00E94AB
:1003B000020A81E060E00E94E6098DEF90E00E9471
:1003C000020A82E060E00E94E6098EE091E00E946D
:1003D000020A83E060E00E94E6098FE191E00E945A
:1003E000020A0E947509813409F4F5C090E00F2ECD
:1003F000FFECCF2EFFEFDF2EF02DC80ED91E85E0CB
:10040000C816D10408F0E7C00E94DC0980E060E073
:100410000E94E6098601000F111FC8018C0D9D1D69
:10042000880F991F880F991F0F2EF1EB6F2EF3E0A5
:100430007F2EF02D680E791EC3010E94020A81E012
:1004400060E00E94E60980E391E00E94020AF30165
:1004500060857185828593850E942C0E0E94110A09
:1004600087EE90E00E94020A82E060E00E94E609C6
:1004700089E391E00E94020A83E060E00E94E609BD
:100480008AE491E00E94020A80E389838A838B8355
:100490008C83EE24FF240E947509182F813409F4FF
:1004A0009AC0843409F07AC01E141F040CF076C080
:1004B0002E010894411C511C88249924BB24AA2491
:1004C00010E000E08B2D9A2DA12FB02FBC01CD01A3
:1004D00020E030E040E251E40E94130F162F072F76
:1004E000B82EA92ED2016D912D0170E0605370409D
:1004F000882777FD8095982F0E945F0E9B01AC01A5
:10050000812F902FAB2DBA2DBC01CD010E945C0D27
:10051000B62EA72E182F092F0894811C911C8E141B
:100520009F0484F28C2D4B2D5A2D612F702F0E9429
:1005300069070E94DC0980E060E00E94E609C301CF
:100540000E94020A81E060E00E94E60989E391E0EE
:100550000E94020A82E060E00E94E6098B2D9A2D3B
:10056000A12FB02FBC01CD010E942C0E0E94110AB8
:100570008DE591E00E94020A83E060E00E94E609B6
:1005800085E691E00E94020A8FEF93EDA0E381508F
:100590009040A040E1F700C000001DC0812F8053B3
:1005A0008A3008F078CF94E0E916F1040CF073CFAC
:1005B000E1E0F0E0EC0FFD1FEE0DFF1D108308944D
:1005C000E11CF11C6E2D675F82E00E94E609812F1D
:1005D0000E948A0960CF0F900F900F900F90DF91CB
:1005E000CF911F910F91FF90EF90DF90CF90BF9030
:1005F000AF909F908F907F906F905F904F900895F5
:100600000F931F930E94DC0980E060E00E94E609DE
:1006100086E791E00E94020A81E060E00E94E6091C
:1006200087E891E00E94020A82E060E00E94E60909
:1006300088E991E00E94020A83E060E00E94E609F6
:1006400089EA91E00E94020A0FEF19E628E10150C1
:1006500010402040E1F700C0000083E060E00E940D
:10066000E6098AEB91E00E94020A0E947509813432
:1006700009F469C084E190E00E944508AB01BC0127
:100680008091AC059091AD05A091AE05B091AF05FC
:100690008A019B01081B190B2A0B3B0BC901B801EE
:1006A0000E945F0E20E030E04AE754E40E94C40D4F
:1006B000262F372FF82FE92F462F572F682F792F06
:1006C000409353045093540460935504709356041C
:1006D000822F932FAF2FBE2FBC01CD010E94820528
:1006E0000E94DC0980E060E00E94E6098BEC91E06A
:1006F0000E94020A81E060E00E94E6098CED91E030
:100700000E94020A82E060E00E94E60960915304C0
:100710007091540480915504909156040E942C0EBF
:100720000E94110A83E060E00E94E60985E691E0FC
:100730000E94020A8FEF93EDA0E381509040A04009
:10074000E1F700C000001F910F9108950E94DC099D
:1007500080E060E00E94E6098DEE91E00E94020ACE
:1007600081E060E00E94E6098EEF91E00E94020ABB
:1007700082E060E00E94E6098FE092E00E94020AB7
:1007800083E060E00E94E60980E292E00E94020AB3
:100790000E947509813439F10E9482086091AC058C
:1007A0007091AD058091AE059091AF050E947B05DB
:1007B0000E94DC0980E060E00E94E60981E392E0AB
:1007C0000E94020A81E060E00E94E60982E492E071
:1007D0000E94020A8FEF93EDA0E381509040A04069
:1007E000E1F700C0000008950F931F93CF93DF93AC
:1007F000CDB7DEB728970FB6F894DEBF0FBECDBFDA
:1008000019821A821B821C820E94DC0980E060E04F
:100810000E94E60983E592E00E94020A81E060E01E
:100820000E94E60984E692E00E94020A82E060E00B
:100830000E94E60982E890E00E94020A83E060E0FC
:100840000E94E60985E792E00E94020A00E010E0BB
:100850000E947509813409F4A1C0982F90539A30F1
:10086000B8F7E1E0F0E0EC0FFD1FE00FF11F80832F
:1008700082E0602F0E94E6098AE20E948A090F5FE7
:100880001F4F0430110524F30E94DC0980E060E072
:100890000E94E60986E892E00E94020A81E060E098
:1008A0000E94E60982E890E00E94020A1D821E82F0
:1008B0001F82188600E010E00E947509833409F455
:1008C0006DC0982F90539A30B8F7E5E0F0E0EC0F48
:1008D000FD1FE00FF11F808381E0602F0E94E60979
:1008E0008AE20E948A090F5F1F4F0430110524F32A
:1008F00089819D81891761F42A819E81291741F49C
:100900002B819F81291721F42C8198852917E1F0EB
:100910000E94DC0980E060E00E94E60987E992E03D
:100920000E94020A81E060E00E94E60988EA92E003
:100930000E94020A8FEF93EDA0E381509040A04007
:10094000E1F700C000002AC0809385038A8180936C
:1009500086038B81809387038C818093880385E84D
:1009600093E00E9489050E94DC0980E060E00E941B
:10097000E60989EB92E00E94020A81E060E00E94B1
:10098000E60985E691E00E94020A8FEF93EDA0E36D
:1009900081509040A040E1F700C0000028960FB6BB
:1009A000F894DEBF0FBECDBFDF91CF911F910F91A5
:1009B00008950E94DC0980E060E00E94E6098AEC6C
:1009C00092E00E94020A81E060E00E94E6098BED5D
:1009D00092E00E94020A82E060E00E94E6098CEE4A
:1009E00092E00E94020A83E060E00E94E6098FEF35
:1009F00092E00E94020A0E9475098134E9F40E9483
:100A000079060E94DC0980E060E00E94E60982E14C
:100A100093E00E94020A81E060E00E94E60983E21E
:100A200093E00E94020A8FEF93EDA0E38150904083
:100A3000A040E1F700C0000008950E94DC0980E0BA
:100A400060E00E94E60984E393E00E94020A81E0EC
:100A500060E00E94E6098FE393E00E94020A82E0D0
:100A600060E00E94E6098FE493E00E94020A83E0BE
:100A700060E00E94E6098EE593E00E94020A0E946F
:100A800075098433C9F0853338F4823379F08333C0
:100A900080F4813379F507C08633A1F0863378F08E
:100AA000813441F512C00E94D20008950E94BB011A
:100AB00008950E94000308950E94A60308950E94CD
:100AC000F40308950E94D90408951092AB050E9482
:100AD000DC0980E060E00E94E60984E793E00E9480
:100AE000020A8FEF9EE9A4E281509040A040E1F716
:100AF00000C000000895AB01BC0180E090E00E94BE
:100B0000EC0F0895AB01BC0184E090E00E94EC0F73
:100B100008950F931F93CF93DF93082F192FC8E0E9
:100B2000D0E0F80161918F01CE010E94DB0F219688
:100B3000CC30D105B1F7DF91CF911F910F9108957E
:100B40000F931F93CF93DF93082F192FC8E0D0E0A6
:100B5000CE010E94C70FF80181938F012196CC30FE
:100B6000D105B1F7DF91CF911F910F9108958F9229
:100B70009F92AF92BF92CF92DF92EF92FF920F932C
:100B8000CF93DF936B017C0149015A018091A80545
:100B90009091A905EC01CC0FDD1FC80FD91FCC0F18
:100BA000DD1FCC0FDD1FCE018C96B701A6010E9480
:100BB000EC0FCE01C096B501A4010E94EC0FCE014E
:100BC000C496602F0E94DB0F8091A8059091A90523
:100BD00001969093A9058093A8058E34910520F085
:100BE0001092A9051092A8058091A4059091A505E1
:100BF0008E34910588F08091A6059091A705019605
:100C00009093A7058093A6058E34910550F010921D
:100C1000A7051092A60505C001969093A50580939F
:100C2000A4056091A8057091A9058CE090E00E9450
:100C3000F80F6091A6057091A7058EE090E00E94E4
:100C4000F80F6091A4057091A50580E190E00E94E5
:100C5000F80FDF91CF910F91FF90EF90DF90CF9041
:100C6000BF90AF909F908F900895CF92DF92EF92B8
:100C7000FF920F931F93CF93DF938B017A0169014A
:100C80002091A6053091A705820F931F6EE470E0B6
:100C90000E94760F9C01220F331F820F931FEC01DD
:100CA000CC0FDD1FCC0FDD1FCE018C960E94CF0F25
:100CB000DC01CB01F80180839183A283B383CE0151
:100CC000C0960E94CF0FDC01CB01F7018083918396
:100CD000A283B383CE01C4960E94C70FF60180831E
:100CE000DF91CF911F910F91FF90EF90DF90CF9008
:100CF00008951092A9051092A8051092A7051092C8
:100D0000A6051092A5051092A4058CE090E060E085
:100D100070E00E94F80F8EE090E060E070E00E94CA
:100D2000F80F80E190E060E070E00E94F80F089515
:100D3000EF92FF920F931F93CF93DF93CDB7DEB760
:100D400068970FB6F894DEBF0FBECDBF81E38983ED
:100D500082E38A8383E38B8384E38C83CE010196D1
:100D60000E9489056FE872E480E192E40E948205A6
:100D700060E070E0CB010E947B05DE011596E9E89A
:100D8000F3E084E101900D928150E1F70F2EF7E13D
:100D9000EF2EFF24F02D00E010E0C801429660E045
:100DA0000E94DB0FF801EE0FFF1FEE0FFF1F85E023
:100DB00090E08C0F9D1FE80FF91F408151816281E7
:100DC0007381C7010E94EC0F0F5F1F4F84E090E01A
:100DD000E80EF91E0530110501F70E9479066896A4
:100DE0000FB6F894DEBF0FBECDBFDF91CF911F913C
:100DF0000F91FF90EF90089580E090E00E94CF0F58
:100E0000DC01CB018093AC059093AD05A093AE05BA
:100E1000B093AF0584E090E00E94CF0FDC01CB01DE
:100E20008093530490935404A0935504B0935604B4
:100E300085E893E00E94A0058CE090E00E94D50F29
:100E40009093A9058093A8058EE090E00E94D50FAD
:100E50009093A7058093A60580E190E00E94D50FAE
:100E60009093A5058093A4050E9437070895EF92FB
:100E7000FF920F931F93CF93DF9309EB13E00F2E95
:100E8000F7E1EF2EFF24F02DC2E1D0E0CE010E9469
:100E9000C70F813051F4C7010E94CF0FDC01CB0195
:100EA000F80180839183A283B383219684E090E04C
:100EB000E80EF91E045F1F4FC731D10539F7DF91E6
:100EC000CF911F910F91FF90EF9008950E943707E7
:100ED0000895CF93DF93C82FD0E0FE01EE0FFF1FE0
:100EE000EC0FFD1FEE0FFF1FEE0FFF1FEF54FC4F27
:100EF0004087518762877387CE01880F991F880FBB
:100F0000991F47960E94EC0FCE01429661E00E9425
:100F1000DB0FDF91CF910895CF93DF93CDB7DEB78D
:100F200064970FB6F894DEBF0FBECDBFDE011196F9
:100F3000EDE9F3E094E101900D929150E1F790E03A
:100F4000FC01EE0FFF1FE80FF91FEE0FFF1FEE0F62
:100F5000FF1FEF54FC4FDC01AA0FBB1FAA0FBB1FE2
:100F6000AC0FBD1F11964D915D916D917C911497C1
:100F70004087518762877387429660E00E94DB0F4B
:100F800064960FB6F894DEBF0FBECDBFDF91CF9150
:100F9000089520E030E04AE754E40E94C40DAB011C
:100FA000BC018091AA0590E0FC01EE0FFF1FE80F45
:100FB000F91FEE0FFF1FEE0FFF1FEF54FC4FCB0189
:100FC000BA0120853185428553850E94130F462F33
:100FD000572F682F792FCB01BA0108950E949A09E3
:100FE0008FE798E3A1E081509040A040E1F700C076
:100FF00000000E94DC0A8BE290E00E94C70F8A3A50
:1010000039F00E9498068BE290E06AEA0E94DB0FBA
:101010000E94FC060E941C080E9414090E94260BD4
:101020000E9482088091AB05882319F40E94170C56
:10103000F9CF0E941D05F6CFD098D19AD99808957E
:101040000F931F93C899FECF88E190E000E010E075
:101050009801D99A0000000F111F221F331FC89B4F
:1010600004C00F5F1F4F2F4F3F4FD99800000197CB
:1010700081F7D99A0000D99827FD3F6F602F712F13
:10108000822F932F1F910F910895CF92DF92EF92AD
:10109000FF920F931F93CF93DF938C0118161906BD
:1010A000C4F4C0E0D0E0CC24DD2476010E94200806
:1010B000DC01CB01C80ED91EEA1EFB1E83EC99E0B1
:1010C0000197F1F700C000002196C017D10771F712
:1010D00003C0CC24DD2476019801442737FD4095D8
:1010E000542FC701B6010E948A0F622F732F842FDD
:1010F000952FDF91CF911F910F91FF90EF90DF908F
:10110000CF9008950E94DC0980E060E00E94E6092B
:101110008DEE93E00E94020A81E060E00E94E60901
:101120008EEF93E00E94020A82E060E00E94E609EE
:101130008FE094E00E94020A83E060E00E94E609EA
:1011400080E294E00E94020A84E190E00E94450857
:10115000DC01CB018093AC059093AD05A093AE0567
:10116000B093AF050E94DC0980E060E00E94E609D0
:1011700081E394E00E94020A81E060E00E94E609B7
:1011800082E494E00E94020A8FE79AE1A6E081508F
:101190009040A040E1F700C0000008950F931F9316
:1011A000CF93DF9383E090E00E944508AB01BC0140
:1011B0008091AC059091AD05A091AE05B091AF05C1
:1011C0008A019B01081B190B2A0B3B0BC901B801B3
:1011D0000E945F0E209153043091540440915504B5
:1011E000509156040E94C40D062F172FD82FC92FD7
:1011F000862F912FAD2FBC2FBC01CD0120E030E018
:10120000A9010E94C00D882324F400E010E0D0E082
:10121000C0E0802F912FAD2FBC2FBC01CD01DF91FD
:10122000CF911F910F91089517BA8FE088BB089551
:1012300040E050E060E170E0E0E0F0E0CB01042E3F
:1012400002C0880F991F0A94E2F787BB80958F60D0
:1012500088BB86E08A95F1F700C09F0186B390E0D5
:10126000022E02C0959587950A94E2F780FD30C062
:101270008BE49DE10197F1F700C0000086B390E098
:10128000022E02C0959587950A94E2F780FD20C052
:1012900061E070E0022E02C0660F771F0A94E2F749
:1012A00086B390E0862397230097D1F38BE49DE1EA
:1012B0000197F1F700C00000F901EE0FFF1FEE0FDC
:1012C000FF1F4E0F5F1FFA01E95AFB4F80810895FF
:1012D0002F5F3F4F2430310509F64F5F5F4F443099
:1012E000510509F0ABCF80E008950E9418098823CA
:1012F000E1F308959098919885BB929A83E08A953E
:10130000F1F70000929883EF91E00197F1F700C0A8
:1013100000000895909A919885BB929A83E08A95EF
:10132000F1F70000929883EF91E00197F1F700C088
:10133000000008958FEF84BB81B3876081BB83ED8C
:1013400090E30197F1F700C0000088E30E947A095A
:1013500081EE94E00197F1F700C0000088E30E945D
:101360007A0981EE94E00197F1F700C0000088E36C
:101370000E947A0981EE94E00197F1F700C0000025
:101380008CE00E947A0983EF91E00197F1F700C0A9
:10139000000086E00E947A0983EF91E00197F1F75F
:1013A00000C0000081E00E947A0981EE94E001977C
:1013B000F1F700C00000089581E00E947A0981EEF3
:1013C00094E00197F1F700C000000895CF93DF93F8
:1013D00000D000D0CDB7DEB790E8998390EC9A8327
:1013E00090E99B8390ED9C83FE01E80FF11D8181C4
:1013F000860F0E947A090F900F900F900F90DF9147
:10140000CF910895CF93DF93EC018881882331F049
:1014100021960E948A0989918823D9F7DF91CF917B
:1014200008956F927F928F929F92AF92BF92CF92C8
:10143000DF92EF92FF920F931F93CF93DF93CDB77D
:10144000DEB72C970FB6F894DEBF0FBECDBF6B0191
:101450007C01611571058105910521F480E30E94ED
:101460008A0948C099235CF48DE20E948A09F094AD
:10147000E094D094C094C11CD11CE11CF11C1C143C
:101480001D041E041F04B4F58E010F5F1F4F662458
:1014900077240F2EFAE08F2EF0E09F2EF0E0AF2E93
:1014A000F0E0BF2EF02DC701B601A50194010E9406
:1014B0008A0F605DF80161938F010894611C711CB3
:1014C000C22ED32EE42EF52E1C141D041E041F0460
:1014D00054F3C301019772F08E010F5F1F4F680133
:1014E000C60CD71CF60182916F010E948A09C016B2
:1014F000D106C1F72C960FB6F894DEBF0FBECDBF54
:10150000DF91CF911F910F91FF90EF90DF90CF90DF
:10151000BF90AF909F908F907F906F900895CF92E3
:10152000DF92EF92FF920F931F93CF93DF936B01A4
:101530007C010E942C0ED62FC72F182F092F0E9436
:101540005F0E9B01AC01C701B6010E945B0D20E05C
:1015500030E048EC52E40E94130F0E942C0EC62E7D
:10156000D72EE82EF92EFF2044F4F094E094D09486
:10157000C094C11CD11CE11CF11C6D2F7C2F812F4C
:10158000902F0E94110A8EE20E948A098AE0C816F2
:10159000D104E104F1041CF480E30E948A09C7012C
:1015A000B6010E94110ADF91CF911F910F91FF9018
:1015B000EF90DF90CF9008958B98939A8FE19EE4FF
:1015C0000197F1F700C0000083993FC00E94DC0939
:1015D00080E060E00E94E60987E694E00E94020A4B
:1015E00081E060E00E94E60988E794E00E94020A38
:1015F00082E060E00E94E60989E894E00E94020A25
:1016000083E060E00E94E6098AE994E00E94020A11
:101610008BE290E06FEF0E94DB0F839BFECF0E9476
:10162000DC0980E060E00E94E6098BEA94E00E9419
:10163000020A8FEF9EE9A4E281509040A040E1F7BA
:1016400000C00000E0E0F0E0099508950E94DC0988
:1016500080E060E00E94E6098CEB94E00E94020AC0
:1016600081E060E00E94E6098EEC94E00E94020AAC
:1016700082E060E00E94E6098FED94E00E94020A99
:1016800083E060E00E94E6098DEE94E00E94020A89
:101690008FEF9DE3A9E481509040A040E1F700C0A6
:1016A000000008954F925F926F927F928F929F9267
:1016B000AF92BF92CF92DF92EF92FF920F931F9360
:1016C000CF93DF936B017C0149015A010E94DC0931
:1016D00080E060E00E94E6098EEF94E00E94020A3A
:1016E00081E060E00E94E60910E0E801CC0FDD1F18
:1016F000CE01800F911F880F991F880F991F8F545B
:101700009C4F0E94020A82E060E00E94E6098FE09E
:1017100095E00E94020AC701B60120E030E04AE7E6
:1017200054E40E94C40D0E948F0A82E195E00E9459
:10173000020A83E060E00E94E6090F2EF6E16F2EB8
:10174000F5E07F2EF02DC3010E94020AC501B4010D
:101750000E948F0A0F2EFDE14F2EF5E05F2EF02D37
:10176000C2010E94020A8FEF93EDA0E381509040E6
:10177000A040E1F700C000000E94DC0980E060E0CA
:101780000E94E6090C0F1D1FF801EE0FFF1FEE0F60
:10179000FF1FEF54FC4F60857185828593850E9401
:1017A0002C0E0E94110A82E295E00E94020A81E05A
:1017B00060E00E94E6098AE295E00E94020AC70101
:1017C000B6010E948F0A82E395E00E94020A82E03D
:1017D00060E00E94E609C3010E94020AC501B4014B
:1017E0000E948F0AC2010E94020A83E060E00E9408
:1017F000E60985E395E00E94020A8FEF9DE3A9E4E4
:1018000081509040A040E1F700C00000DF91CF91EF
:101810001F910F91FF90EF90DF90CF90BF90AF900E
:101820009F908F907F906F905F904F900895CF9290
:10183000DF92EF92FF920F930E941809982F915315
:10184000953038F49093AA051092B1051092B00526
:101850002CC18434C9F5C090B205D090B305E09096
:10186000B405F090B505C701B60120E030E040E8CE
:101870005FE30E940F0F181614F52091B605309102
:10188000B7054091B8055091B905C701B60100915F
:10189000AA050E94B7056091B2057091B3058091C9
:1018A000B4059091B5052091B6053091B7054091EA
:1018B000B8055091B9050091AA050E94520B1092EB
:1018C000B1051092B005F1C0833239F40E9482084C
:1018D0001092B1051092B005E8C0813469F580918D
:1018E000B0059091B10501969093B1058093B00534
:1018F000823091050CF4D9C01092B1051092B00558
:101900000E944900009709F4D0C081E08093AB05A4
:101910000E94DC0980E060E00E94E60986E495E030
:101920000E94020A8FEF9EE9A4E281509040A040FD
:10193000E1F700C00000B9C08091BA059091BB05E5
:1019400001969093BB058093BA0585309105D4F03C
:101950001092BB051092BA050E94CE086093B205A2
:101960007093B3058093B4059093B5050E94C907A1
:10197000DC01CB018093B6059093B705A093B80521
:10198000B093B90580E060E00E94E6098091AA0565
:1019900090E09C01220F331F820F931F880F991F25
:1019A000880F991F8F549C4F0E94020A87E595E08B
:1019B0000E94020A8091AA0590E0FC01EE0FFF1F31
:1019C0008E0F9F1FFC01EE0FFF1FEE0FFF1FEF5446
:1019D000FC4F60857185828593850E942C0E0E9444
:1019E000110A89E595E00E94020A81E060E00E9408
:1019F000E6098FE095E00E94020A6091B2057091BD
:101A0000B3058091B4059091B50520E030E04AE738
:101A100054E40E94C40D0E948F0A8EE595E00E9456
:101A2000020A82E060E00E94E60986E195E00E94F9
:101A3000020A6091B6057091B7058091B805909142
:101A4000B9050E948F0A87E695E00E94020A83E0AA
:101A500060E00E94E609C090B205D090B305E09026
:101A6000B405F090B505C701B60120E030E040E8CC
:101A70005FE30E94C00D88232CF480E795E00E946C
:101A8000020A13C0C701B60120E030E44CE955E476
:101A90000E940F0F88232CF081E895E00E94020A33
:101AA00004C082E995E00E94020A0F91FF90EF9036
:101AB000DF90CF9008955058BB27AA270ED075C14C
:101AC00066D130F06BD120F031F49F3F11F41EF459
:101AD0005BC10EF4E095E7FB51C1E92F77D180F3AC
:101AE000BA17620773078407950718F071F49EF51B
:101AF0008FC10EF4E0950B2EBA2FA02D0B01B9016A
:101B000090010C01CA01A0011124FF27591B99F073
:101B1000593F50F4503E68F11A16F040A22F232F7F
:101B2000342F4427585FF3CF469537952795A795CF
:101B3000F0405395C9F77EF41F16BA0B620B730B76
:101B4000840BBAF09150A1F0FF0FBB1F661F771FE7
:101B5000881FC2F70EC0BA0F621F731F841F48F49C
:101B6000879577956795B795F7959E3F08F0B3CF22
:101B70009395880F08F09927EE0F9795879508950C
:101B8000D9D008F481E008950CD00FC107D140F0FE
:101B9000FED030F021F45F3F19F0F0C0511139C18F
:101BA000F3C014D198F39923C9F35523B1F3951BCE
:101BB000550BBB27AA2762177307840738F09F5F6E
:101BC0005F4F220F331F441FAA1FA9F333D00E2EDD
:101BD0003AF0E0E830D091505040E695001CCAF74A
:101BE00029D0FE2F27D0660F771F881FBB1F26170F
:101BF00037074807AB07B0E809F0BB0B802DBF01E2
:101C0000FF2793585F4F2AF09E3F510568F0B6C0FA
:101C100000C15F3FECF3983EDCF3869577956795BE
:101C2000B795F7959F5FC9F7880F911D9695879592
:101C300097F90895E1E0660F771F881FBB1F6217B1
:101C400073078407BA0720F0621B730B840BBA0B6F
:101C5000EE1F88F7E095089504D06894B111D9C0BB
:101C60000895BCD088F09F5790F0B92F9927B751AD
:101C7000A0F0D1F0660F771F881F991F1AF0BA9550
:101C8000C9F712C0B13081F0C3D0B1E00895C0C02F
:101C9000672F782F8827B85F39F0B93FCCF3869546
:101CA00077956795B395D9F73EF4909580957095A3
:101CB00061957F4F8F4F9F4F0895E89409C097FB20
:101CC0003EF490958095709561957F4F8F4F9F4F13
:101CD0009923A9F0F92F96E9BB279395F695879557
:101CE00077956795B795F111F8CFFAF4BB0F11F41A
:101CF00060FF1BC06F5F7F4F8F4F9F4F16C08823C1
:101D000011F096E911C0772321F09EE8872F762FF6
:101D100005C0662371F096E8862F70E060E02AF037
:101D20009A95660F771F881FDAF7880F9695879523
:101D300097F90895990F0008550FAA0BE0E8FEEFF8
:101D400016161706E807F907C0F012161306E4077F
:101D5000F50798F0621B730B840B950B39F40A2678
:101D600061F0232B242B252B21F408950A2609F456
:101D7000A140A6958FEF811D811D089597F99F675A
:101D800080E870E060E008959FEF80EC0895002403
:101D90000A941616170618060906089500240A94D0
:101DA00012161306140605060895092E0394000C56
:101DB00011F4882352F0BB0F40F4BF2B11F460FFE5
:101DC00004C06F5F7F4F8F4F9F4F089557FD90580E
:101DD000440F551F59F05F3F71F04795880F97FBEF
:101DE000991F61F09F3F79F08795089512161306A9
:101DF0001406551FF2CF4695F1DF08C016161706D8
:101E00001806991FF1CF869571056105089408950C
:101E1000E894BB2766277727CB0197F908958ADFD7
:101E200008F48FEF08950BD0C0CFB1DF28F0B6DFF4
:101E300018F0952309F0A2CFA7CF1124EACFC6DF6F
:101E4000A0F3959FD1F3950F50E0551F629FF001CD
:101E5000729FBB27F00DB11D639FAA27F00DB11D26
:101E6000AA1F649F6627B00DA11D661F829F2227AF
:101E7000B00DA11D621F739FB00DA11D621F839F36
:101E8000A00D611D221F749F3327A00D611D231F0C
:101E9000849F600D211D822F762F6A2F11249F575A
:101EA00050408AF0E1F088234AF0EE0FFF1FBB1F7D
:101EB000661F771F881F91505040A9F79E3F51051C
:101EC00070F05CCFA6CF5F3FECF3983EDCF38695D5
:101ED00077956795B795F795E7959F5FC1F7FE2BC7
:101EE000880F911D9695879597F90895AA1BBB1B9E
:101EF00051E107C0AA1FBB1FA617B70710F0A61B0A
:101F0000B70B881F991F5A95A9F780959095BC012A
:101F1000CD01089597FB092E05260ED057FD04D05C
:101F200014D00AD0001C38F4509540953095219576
:101F30003F4F4F4F5F4F0895F6F7909580957095FE
:101F400061957F4F8F4F9F4F0895A1E21A2EAA1BD4
:101F5000BB1BFD010DC0AA1FBB1FEE1FFF1FA21759
:101F6000B307E407F50720F0A21BB30BE40BF50B56
:101F7000661F771F881F991F1A9469F760957095DF
:101F8000809590959B01AC01BD01CF010895E19929
:101F9000FECF9FBB8EBBE09A99278DB30895A6E133
:101FA000B0E044E050E00C940010A8E1B0E042E062
:101FB00050E00C940010262FE199FECF9FBB8EBB02
:101FC000E09A01970DB2021631F02DBB0FB6F894CE
:101FD000E29AE19A0FBE08950396272F0E94DC0F24
:101FE0000E94DB0F252F0E94DC0F242F0C94DC0FA6
:101FF0000196272F0E94DC0F0C94DB0FDC01CB0134
:10200000FC01E199FECF06C0FFBBEEBBE09A319622
:102010000DB20D9241505040B8F70895F894FFCF9B
:10202000202041444D494E204C4F47494E2020200E
:1020300000456E7465722070617373776F72643AD5
:1020400020005F5F5F5F20202020202020202020B4
:10205000202000433D43616E63656C2020202020DA
:10206000202020002057726F6E6720706173737795
:102070006F72642100204163636573732064656E31
:10208000696564202000204E6F20686973746F7248
:1020900079207965742000543A002F00573A0020C7
:1020A00067202000503A00204547500053656C657A
:1020B00063742066727569743A20202000313D41B6
:1020C00070706C6520323D42616E616E6100333D1F
:1020D0004F72616E6765343D47726170657300359C
:1020E0003D4D616E676F20413D4261636B20200072
:1020F00043757272656E743A004E6577207072692E
:1021000063653A20202020202000413D43616E631A
:10211000656C20443D436F6E6669726D00204547D3
:10212000502F6B67005361766564212020202020AA
:1021300020202020200043616C6962726174696F05
:102140006E202020202000506C61636520316B6779
:1021500020776569676874006F6E207363616C65D2
:1021600020202020202020200050726573732044FE
:10217000207768656E202020200072656164792ECA
:102180002E2E20202020202020200043616C696218
:1021900072617465642120202020200046616374F0
:1021A0006F723A20202020202020202000536574C8
:1021B00074696E67205A65726F2020202000526576
:1021C0006D6F766520616C6C2020202020200077C8
:1021D00065696768742066726F6D2020202020007A
:1021E0007363616C652070726573732044202020D6
:1021F000005A65726F2073657421202020202020F2
:102200002000536176656420746F206D656D6F7278
:102210007920004E65772070617373776F72643A2E
:1022200020202000456E746572203420646967693F
:102230007473202000413D43616E63656C20202053
:10224000202020202000436F6E6669726D3A2020A6
:102250002020202020200050617373776F726473F8
:1022600020646F6E742020006D61746368212054B7
:10227000727920616761696E0050617373776F7264
:1022800064206368616E67656400436C65617220F9
:10229000686973746F72793F202000414C4C206450
:1022A000617461206C6F73742120200044203D20F4
:1022B000636F6E6669726D2020202020202000410F
:1022C000203D2063616E63656C202020202020204B
:1022D0002000486973746F727920636C6561726560
:1022E000642100416C6C20736C6F7473206672659E
:1022F0006520200041444D494E204D454E5500314A
:102300003D4869737420323D5072696365730033D0
:102310003D43616C696220343D5A65726F00353D02
:102320005061737320363D436C65617220413D45B9
:10233000786974002045786974696E672041646D1E
:10234000696E202000313233340000C84100007033
:10235000410000A0410000344200000C420000C8CF
:1023600041000070410000A0410000344200000C18
:10237000424170706C652020200000C84142616EAF
:10238000616E612020000070414F72616E676520B0
:10239000200000A041477261706573202000003466
:1023A000424D616E676F20202000000C42506C652A
:1023B00061736520776169742E2E2E2020004361A1
:1023C0006C63756C6174696E67207A65726F004426
:1023D0006F206E6F7420746F75636820202020005A
:1023E000746865207363616C6521202020202020A3
:1023F000005A65726F2073657421202020202020F0
:102400002000506C616365207765696768742E2EC3
:102410002E20008F4210423132334134353642375C
:102420003839432A30234420464143544F525920DF
:1024300052455345542020002052656D6F7665202B
:102440006A756D70657220200020746F20636F6E56
:1024500074696E7565202020200020202020202017
:1024600020202020202020202020002020526573C2
:1024700074617274696E672E2E2E2000202077659D
:1024800069676874205363616C65202020002020F8
:1024900041546D6567613332207631202020002061
:1024A0002042793A207465616D202020002020535D
:1024B00074617274696E672E2E2E202020002020F9
:1024C0004672756974205363616C65202020005743
:1024D0003A00206B6700546F74616C3A00204547E6
:1024E0005000204547502F6B670057656967687437
:1024F0003A0020670020205468616E6B20796F7568
:102500002120202020002057656C636F6D652041DD
:10251000646D696E21200020004547502000206B2B
:102520006720202020200020454750202020200028
:10253000456D70747920312D35206672756974206F
:102540000020202121204F5645524C4F414420214C
:102550002100537461626C65204420746F207361A4
:04256000766500009C
:00000001FF
