:100000000C942A000C9447000C9447000C94470071
:100010000C9447000C9447000C9447000C94470044
:100020000C9447000C9447000C9447000C94470034
:100030000C9447000C9447000C9447000C94470024
:100040000C9447000C9447000C9447000C94470014
:100050000C94470011241FBECFE5D8E0DEBFCDBF12
:1000600015E0A0E6B0E0EAE1F1E202C005900D92F1
:10007000AE37B107D9F715E0AEE7B5E001C01D9284
:10008000A639B107E1F70E946B080C948B100C9411
:1000900000000F931F93CF93DF9300D000D0CDB714
:1000A000DEB719821A821B821C820E94590A80E0E4
:1000B00060E00E94630A80E690E00E947F0A81E08F
:1000C00060E00E94630A81E790E00E947F0A82E07C
:1000D00060E00E94630A82E890E00E947F0A83E069
:1000E00060E00E94630A83E990E00E947F0A00E0DA
:1000F00010E00E94F209833409F448C0982F90530D
:100100009A30B8F7E1E0F0E0EC0FFD1FE00FF11FCF
:10011000808382E0602F0E94630A8AE20E94070ABD
:100120000F5F1F4F0430110524F3998180915E0306
:10013000981779F49A8180915F03981751F49B8105
:1001400080916003981729F49C818091610398172E
:10015000F9F00E94590A80E060E00E94630A84EA94
:1001600090E00E947F0A81E060E00E94630A85EBD4
:1001700090E00E947F0A8FEF93EDA0E381509040C2
:10018000A040E1F700C0000080E003C080E001C0B3
:1001900081E00F900F900F900F90DF91CF911F9102
:1001A0000F9108952F923F924F925F926F927F929C
:1001B0008F929F92AF92BF92CF92DF92EF92FF9277
:1001C0000F931F93CF93DF93CDB7DEB729970FB669
:1001D000F894DEBF0FBECDBF80917E0590917F0564
:1001E0000097B1F40E94590A80E060E00E94630A1F
:1001F00086EC90E00E947F0A8FEF93EDA0E38150A0
:100200009040A040E1F700C000009CC0870126C0DC
:1002100000E010E00F2EF7EDCF2EF0E0DF2EF02DF6
:100220000F2EFAEDAF2EF0E0BF2EF02D0F2EFCEDCD
:100230008F2EF0E09F2EF02D0F2EFFED6F2EF0E0B1
:100240007F2EF02D0F2EF4EE4F2EF0E05F2EF02DCE
:100250000F2EF7EE2F2EF0E03F2EF02DC801BE013D
:100260006A5F7F4FAE014E5F5F4F9E012F5F3F4F32
:100270000E94B2060E94590A80E060E00E94630A70
:10028000C6010E947F0A78010894E11CF11CB701A5
:1002900080E090E00E948E0AC5010E947F0A609172
:1002A0007E0570917F0580E090E00E948E0A81E0DB
:1002B00060E00E94630A898190E09C01220F331F55
:1002C000820F931F880F991F880F991F86579C4F85
:1002D0000E947F0A82E060E00E94630AC4010E94DB
:1002E0007F0A6E817F81888599850E940C0BC301EE
:1002F0000E947F0A83E060E00E94630AC2010E94BC
:100300007F0A6A817B818C819D810E940C0BC101D7
:100310000E947F0A0E94F209833451F480917E0585
:1003200090917F0501970817190708F46FCF0AC04D
:10033000823409F093CF0115110509F48FCF0150D4
:1003400010408CCF29960FB6F894DEBF0FBECDBFFC
:10035000DF91CF911F910F91FF90EF90DF90CF90A1
:10036000BF90AF909F908F907F906F905F904F90D5
:100370003F902F9008954F925F926F927F928F924D
:100380009F92AF92BF92CF92DF92EF92FF920F9324
:100390001F93CF93DF9300D000D0CDB7DEB70E947C
:1003A000590A80E060E00E94630A8CEE90E00E94AF
:1003B0007F0A81E060E00E94630A8DEF90E00E9476
:1003C0007F0A82E060E00E94630A8EE091E00E9472
:1003D0007F0A83E060E00E94630A8FE191E00E945F
:1003E0007F0A0E94F209813409F4F5C090E00F2ED3
:1003F000FFECCF2EFFEFDF2EF02DC80ED91E85E0CB
:10040000C816D10408F0E7C00E94590A80E060E0F5
:100410000E94630A8601000F111FC8018C0D9D1DEB
:10042000880F991F880F991F0F2EFAE86F2EF3E09F
:100430007F2EF02D680E791EC3010E947F0A81E095
:1004400060E00E94630A80E391E00E947F0AF3016A
:1004500060857185828593850E94A90E0E948E0A0F
:1004600087EE90E00E947F0A82E060E00E94630ACB
:1004700089E391E00E947F0A83E060E00E94630AC2
:100480008AE491E00E947F0A80E389838A838B83D8
:100490008C83EE24FF240E94F209182F813409F482
:1004A0009AC0843409F07AC01E141F040CF076C080
:1004B0002E010894411C511C88249924BB24AA2491
:1004C00010E000E08B2D9A2DA12FB02FBC01CD01A3
:1004D00020E030E040E251E40E94900F162F072FF9
:1004E000B82EA92ED2016D912D0170E0605370409D
:1004F000882777FD8095982F0E94DC0E9B01AC0128
:10050000812F902FAB2DBA2DBC01CD010E94D90DAA
:10051000B62EA72E182F092F0894811C911C8E141B
:100520009F0484F28C2D4B2D5A2D612F702F0E9429
:10053000E6070E94590A80E060E00E94630AC30156
:100540000E947F0A81E060E00E94630A89E391E0F3
:100550000E947F0A82E060E00E94630A8B2D9A2D40
:10056000A12FB02FBC01CD010E94A90E0E948E0ABE
:100570008DE591E00E947F0A83E060E00E94630ABB
:1005800085E691E00E947F0A8FEF93EDA0E3815012
:100590009040A040E1F700C000001DC0812F8053B3
:1005A0008A3008F078CF94E0E916F1040CF073CFAC
:1005B000E1E0F0E0EC0FFD1FEE0DFF1D108308944D
:1005C000E11CF11C6E2D675F82E00E94630A812F9F
:1005D0000E94070A60CF0F900F900F900F90DF914D
:1005E000CF911F910F91FF90EF90DF90CF90BF9030
:1005F000AF909F908F907F906F905F904F900895F5
:10060000AF92BF92CF92DF92EF92FF920F931F9320
:10061000CF93DF9300D000D000D0CDB7DEB7FE017E
:10062000319686E0DF011D928A95E9F70E94590A0A
:1006300080E060E00E94630A86E791E00E947F0A02
:1006400081E060E00E94630A87E891E00E947F0AEF
:1006500082E060E00E94630A60912C0470912D0496
:1006600080912E0490912F040E94A90E0E948E0A60
:1006700083E060E00E94630A88E991E00E947F0ABB
:100680008FEF93EDA0E381509040A040E1F700C0D0
:10069000000083E065E00E94630A89EA91E00E941D
:1006A0007F0A83E065E00E94630AEE24FF240E9433
:1006B000F209813409F4B6C0843409F085C0E1142C
:1006C000F104A9F31E141F04CCF56E010894C11C9B
:1006D000D11C5601AE0CBF1C30E020E080E090E061
:1006E000582F492F832F922FA52FB42FBC01CD0156
:1006F00020E030E040E251E40E94900F162FE72EF8
:10070000082FF92ED6016D916D0170E06053704095
:10071000882777FD8095982F0E94DC0E9B01AC0105
:10072000812F9E2DA02FBF2DBC01CD010E94D90D80
:10073000362F272FCA14DB0499F604C030E020E0DE
:1007400080E090E0F82FE92F432F522F682F792F68
:1007500040932C0450932D0460932E0470932F0427
:10076000832F922FAF2FBE2FBC01CD010E94FF051A
:100770000E94590A80E060E00E94630A85E691E0E9
:100780000E947F0A81E060E00E94630A85EB91E0AD
:100790000E947F0A82E060E00E94630A60912C045C
:1007A00070912D0480912E0490912F040E94A90E27
:1007B0000E948E0A8FEF93EDA0E381509040A040FD
:1007C000E1F700C000002EC08334A9F41E141F04FA
:1007D0000CF06DCF0894E108F1081E2D1B5F83E03B
:1007E000612F0E94630A80E20E94070A83E0612F62
:1007F0000E94630A5CCF982F90539A3008F057CF2D
:1008000096E0E916F1040CF052CFE1E0F0E0EC0FD5
:10081000FD1FEE0DFF1D80830E94070A0894E11C56
:10082000F11C45CF26960FB6F894DEBF0FBECDBFA4
:10083000DF91CF911F910F91FF90EF90DF90CF90BC
:10084000BF90AF9008950E94590A80E060E00E9436
:10085000630A86EC91E00E947F0A81E060E00E94DA
:10086000630A87ED91E00E947F0A82E060E00E94C7
:10087000630A88EE91E00E947F0A83E060E00E94B4
:10088000630A89EF91E00E947F0A0E94F209813495
:1008900039F10E94FF08609186057091870580916B
:1008A0008805909189050E94F8050E94590A80E008
:1008B00060E00E94630A8AE092E00E947F0A81E081
:1008C00060E00E94630A8BE192E00E947F0A8FEF52
:1008D00093EDA0E381509040A040E1F700C00000FC
:1008E00008950F931F93CF93DF93CDB7DEB728976B
:1008F0000FB6F894DEBF0FBECDBF19821A821B82DD
:100900001C820E94590A80E060E00E94630A8CE227
:1009100092E00E947F0A81E060E00E94630A8DE31A
:1009200092E00E947F0A82E060E00E94630A82E80F
:1009300090E00E947F0A83E060E00E94630A8EE4F8
:1009400092E00E947F0A00E010E00E94F2098134E8
:1009500009F4A1C0982F90539A30B8F7E1E0F0E085
:10096000EC0FFD1FE00FF11F808382E0602F0E94DB
:10097000630A8AE20E94070A0F5F1F4F04301105C5
:1009800024F30E94590A80E060E00E94630A8FE528
:1009900092E00E947F0A81E060E00E94630A82E8A0
:1009A00090E00E947F0A1D821E821F82188600E04E
:1009B00010E00E94F209833409F46DC0982F90531F
:1009C0009A30B8F7E5E0F0E0EC0FFD1FE00FF11F03
:1009D000808381E0602F0E94630A8AE20E94070AF6
:1009E0000F5F1F4F0430110524F389819D81891702
:1009F00061F42A819E81291741F42B819F81291757
:100A000021F42C8198852917E1F00E94590A80E091
:100A100060E00E94630A80E792E00E947F0A81E022
:100A200060E00E94630A81E892E00E947F0A8FEFF3
:100A300093EDA0E381509040A040E1F700C000009A
:100A40002AC080935E038A8180935F038B818093A9
:100A500060038C81809361038EE593E00E9406061B
:100A60000E94590A80E060E00E94630A82E992E0F5
:100A70000E947F0A81E060E00E94630A85E691E0BF
:100A80000E947F0A8FEF93EDA0E381509040A04039
:100A9000E1F700C0000028960FB6F894DEBF0FBE45
:100AA000CDBFDF91CF911F910F9108950E94590AF8
:100AB00080E060E00E94630A83EA92E00E947F0A7D
:100AC00081E060E00E94630A84EB92E00E947F0A6A
:100AD00082E060E00E94630A85EC92E00E947F0A57
:100AE00083E060E00E94630A88ED92E00E947F0A42
:100AF0000E94F2098134E9F40E94F6060E94590A24
:100B000080E060E00E94630A8BEE92E00E947F0A20
:100B100081E060E00E94630A8CEF92E00E947F0A0D
:100B20008FEF93EDA0E381509040A040E1F700C02B
:100B3000000008950E94590A80E060E00E94630A64
:100B40008DE093E00E947F0A81E060E00E94630AEA
:100B50008FE193E00E947F0A82E060E00E94630AD6
:100B60008FE293E00E947F0A83E060E00E94630AC4
:100B70008EE393E00E947F0A0E94F2098433C9F059
:100B8000853338F4823379F0833380F4813379F517
:100B900007C08633A1F0863378F0813441F512C066
:100BA0000E94D20008950E94BB0108950E94000394
:100BB00008950E94230408950E94710408950E94DC
:100BC00056050895109285050E94590A80E060E05C
:100BD0000E94630A8DE493E00E947F0A8FEF9EE9F2
:100BE000A4E281509040A040E1F700C000000895C9
:100BF000AB01BC0180E090E00E9469100895AB0158
:100C0000BC0184E090E00E94691008950F931F9347
:100C1000CF93DF93082F192FC8E0D0E0F80161913E
:100C20008F01CE010E9458102196CC30D105B1F72A
:100C3000DF91CF911F910F9108950F931F93CF9341
:100C4000DF93082F192FC8E0D0E0CE010E94441096
:100C5000F80181938F012196CC30D105B1F7DF9156
:100C6000CF911F910F9108958F929F92AF92BF9253
:100C7000CF92DF92EF92FF920F93CF93DF936B01AE
:100C80007C0149015A018091820590918305EC0114
:100C9000CC0FDD1FC80FD91FCC0FDD1FCC0FDD1F00
:100CA000CE018C96B701A6010E946910CE01C096B4
:100CB000B501A4010E946910CE01C496602F0E9464
:100CC0005810809182059091830501969093830539
:100CD000809382058E34910520F010928305109246
:100CE000820580917E0590917F058E34910588F074
:100CF0008091800590918105019690938105809364
:100D000080058E34910550F0109281051092800577
:100D100005C0019690937F0580937E0560918205C2
:100D2000709183058CE090E00E94751060918005C1
:100D3000709181058EE090E00E94751060917E05B3
:100D400070917F0580E190E00E947510DF91CF9156
:100D50000F91FF90EF90DF90CF90BF90AF909F905A
:100D60008F900895CF92DF92EF92FF920F931F938F
:100D7000CF93DF938B017A01690120918005309137
:100D80008105820F931F6EE470E00E94F30F9C01B7
:100D9000220F331F820F931FEC01CC0FDD1FCC0FEE
:100DA000DD1FCE018C960E944C10DC01CB01F801B6
:100DB00080839183A283B383CE01C0960E944C109E
:100DC000DC01CB01F70180839183A283B383CE0141
:100DD000C4960E944410F6018083DF91CF911F9149
:100DE0000F91FF90EF90DF90CF90089510928305C0
:100DF00010928205109281051092800510927F0555
:100E000010927E058CE090E060E070E00E9475102A
:100E10008EE090E060E070E00E94751080E190E06C
:100E200060E070E00E9475100895EF92FF920F93BA
:100E30001F93CF93DF93CDB7DEB768970FB6F894C3
:100E4000DEBF0FBECDBF81E3898382E38A8383E364
:100E50008B8384E38C83CE0101960E9406066FE8A3
:100E600072E480E192E40E94FF0560E070E0CB0153
:100E70000E94F805DE011596E2E6F3E084E10190B8
:100E80000D928150E1F70F2EF7E1EF2EFF24F02DA8
:100E900000E010E0C801429660E00E945810F8019E
:100EA000EE0FFF1FEE0FFF1F85E090E08C0F9D1FE0
:100EB000E80FF91F4081518162817381C7010E944F
:100EC00069100F5F1F4F84E090E0E80EF91E0530B7
:100ED000110501F70E94F60668960FB6F894DEBF7A
:100EE0000FBECDBFDF91CF911F910F91FF90EF907B
:100EF000089580E090E00E944C10DC01CB018093CB
:100F0000860590938705A0938805B093890584E0B2
:100F100090E00E944C10DC01CB0180932C04909354
:100F20002D04A0932E04B0932F048EE593E00E942D
:100F30001D068CE090E00E945210909383058093F0
:100F400082058EE090E00E9452109093810580937C
:100F5000800580E190E00E94521090937F0580937D
:100F60007E050E94B4070895EF92FF920F931F939E
:100F7000CF93DF9302E913E00F2EF7E1EF2EFF246A
:100F8000F02DC2E1D0E0CE010E944410813051F436
:100F9000C7010E944C10DC01CB01F80180839183D2
:100FA000A283B383219684E090E0E80EF91E045FEB
:100FB0001F4FC731D10539F7DF91CF911F910F91A5
:100FC000FF90EF9008950E94B4070895CF93DF93A8
:100FD000C82FD0E0FE01EE0FFF1FEC0FFD1FEE0F3C
:100FE000FF1FEE0FFF1FE657FC4F408751876287B8
:100FF0007387CE01880F991F880F991F47960E940B
:101000006910CE01429661E00E945810DF91CF91A5
:101010000895CF93DF93CDB7DEB764970FB6F894FA
:10102000DEBF0FBECDBFDE011196E6E7F3E094E12F
:1010300001900D929150E1F790E0FC01EE0FFF1F3F
:10104000E80FF91FEE0FFF1FEE0FFF1FE657FC4FD3
:10105000DC01AA0FBB1FAA0FBB1FAC0FBD1F11964F
:101060004D915D916D917C91149740875187628776
:101070007387429660E00E94581064960FB6F89409
:10108000DEBF0FBECDBFDF91CF91089520E030E0ED
:101090004AE754E40E94410EAB01BC0180918405F3
:1010A00090E0FC01EE0FFF1FE80FF91FEE0FFF1F8E
:1010B000EE0FFF1FE657FC4FCB01BA0120853185AB
:1010C000428553850E94900F462F572F682F792F06
:1010D000CB01BA0108950E94170A8FE798E3A1E0B7
:1010E00081509040A040E1F700C000000E945D0BDD
:1010F0008BE290E00E9444108A3A39F00E94150772
:101100008BE290E06AEA0E9458100E9479070E94E0
:1011100099080E9491090E94A70B0E94FF088091E4
:101120008505882319F40E94980CF9CF0E949A052E
:10113000F6CFA698A79AAF9808950F931F939E99FC
:10114000FECF88E190E000E010E09801AF9A000047
:10115000000F111F221F331F9E9B04C00F5F1F4FE4
:101160002F4F3F4FAF980000019781F7AF9A0000D3
:10117000AF9827FD3F6F602F712F822F932F1F9104
:101180000F910895CF92DF92EF92FF920F931F93EA
:10119000CF93DF938C0118161906C4F4C0E0D0E099
:1011A000CC24DD2476010E949D08DC01CB01C80E11
:1011B000D91EEA1EFB1E83EC99E00197F1F700C0EF
:1011C00000002196C017D10771F703C0CC24DD249D
:1011D00076019801442737FD4095542FC701B60189
:1011E0000E940710622F732F842F952FDF91CF91CC
:1011F0001F910F91FF90EF90DF90CF9008950E9484
:10120000590A80E060E00E94630A86EC93E00E9445
:101210007F0A81E060E00E94630A87ED93E00E940C
:101220007F0A82E060E00E94630A88EE93E00E94F9
:101230007F0A83E060E00E94630A89EF93E00E94E6
:101240007F0A84E190E00E94C208DC01CB01809318
:10125000860590938705A0938805B09389050E9421
:10126000590A80E060E00E94630A8AE094E00E94EC
:101270007F0A81E060E00E94630A8BE194E00E94B3
:101280007F0A8FE79AE1A6E081509040A040E1F705
:1012900000C0000008950F931F93CF93DF9383E066
:1012A00090E00E94C208AB01BC018091860590913C
:1012B0008705A0918805B09189058A019B01081BCB
:1012C000190B2A0B3B0BC901B8010E94DC0E2091BF
:1012D0002C0430912D0440912E0450912F040E9433
:1012E000410E062F172FD82FC92F862F912FAD2FE4
:1012F000BC2FBC01CD0120E030E0A9010E943D0ED1
:10130000882324F400E010E0D0E0C0E0802F912F8B
:10131000AD2FBC2FBC01CD01DF91CF911F910F915B
:10132000089517BA8FE088BB089540E050E060E16F
:1013300070E0E0E0F0E0CB01042E02C0880F991FBE
:101340000A94E2F787BB80958F6088BB86E08A9518
:10135000F1F700C09F0186B390E0022E02C0959580
:1013600087950A94E2F780FD30C08BE49DE10197F8
:10137000F1F700C0000086B390E0022E02C0959500
:1013800087950A94E2F780FD20C061E070E0022EAC
:1013900002C0660F771F0A94E2F786B390E08623B7
:1013A00097230097D1F38BE49DE10197F1F700C0FB
:1013B0000000F901EE0FFF1FEE0FFF1F4E0F5F1F22
:1013C000FA01E05DFB4F808108952F5F3F4F24308D
:1013D000310509F64F5F5F4F4430510509F0ABCF3F
:1013E00080E008950E9495098823E1F30895A89864
:1013F000A9988BBBAB9A83E08A95F1F70000AB9874
:1014000083EF91E00197F1F700C000000895A89ADA
:10141000A9988BBBAB9A83E08A95F1F70000AB9853
:1014200083EF91E00197F1F700C0000008958FEF7E
:101430008ABB84B38B6084BB83ED90E30197F1F7A3
:1014400000C0000088E30E94F70981EE94E0019754
:10145000F1F700C0000088E30E94F70981EE94E0F4
:101460000197F1F700C0000088E30E94F70981EEC0
:1014700094E00197F1F700C000008CE00E94F709AA
:1014800083EF91E00197F1F700C0000086E00E9431
:10149000F70983EF91E00197F1F700C0000081E0C8
:1014A0000E94F70981EE94E00197F1F700C0000077
:1014B000089581E00E94F70981EE94E00197F1F729
:1014C00000C000000895CF93DF9300D000D0CDB7C7
:1014D000DEB790E8998390EC9A8390E99B8390ED36
:1014E0009C83FE01E80FF11D8181860F0E94F709A0
:1014F0000F900F900F900F90DF91CF910895CF93A1
:10150000DF93EC018881882331F021960E94070A3D
:1015100089918823D9F7DF91CF9108956F927F92B7
:101520008F929F92AF92BF92CF92DF92EF92FF92F3
:101530000F931F93CF93DF93CDB7DEB72C970FB6E2
:10154000F894DEBF0FBECDBF6B017C016115710544
:101550008105910521F480E30E94070A48C0992380
:101560005CF48DE20E94070AF094E094D094C09459
:10157000C11CD11CE11CF11C1C141D041E041F0401
:10158000B4F58E010F5F1F4F662477240F2EFAE00B
:101590008F2EF0E09F2EF0E0AF2EF0E0BF2EF02D6A
:1015A000C701B601A50194010E940710605DF80112
:1015B00061938F010894611C711CC22ED32EE42EFE
:1015C000F52E1C141D041E041F0454F3C3010197BF
:1015D00072F08E010F5F1F4F6801C60CD71CF60119
:1015E00082916F010E94070AC016D106C1F72C969E
:1015F0000FB6F894DEBF0FBECDBFDF91CF911F9124
:101600000F91FF90EF90DF90CF90BF90AF909F90A1
:101610008F907F906F900895CF92DF92EF92FF921C
:101620000F931F93CF93DF936B017C010E94A90E50
:10163000D62FC72F182F092F0E94DC0E9B01AC015B
:10164000C701B6010E94D80D20E030E048EC52E41A
:101650000E94900F0E94A90EC62ED72EE82EF92EBA
:10166000FF2044F4F094E094D094C094C11CD11CA9
:10167000E11CF11C6D2F7C2F812F902F0E948E0A70
:101680008EE20E94070A8AE0C816D104E104F10440
:101690001CF480E30E94070AC701B6010E948E0A6B
:1016A00080E494E00E947F0ADF91CF911F910F9117
:1016B000FF90EF90DF90CF9008958B98939A8FE1F1
:1016C0009EE40197F1F700C0000083993FC00E949B
:1016D000590A80E060E00E94630A83E494E00E947B
:1016E0007F0A81E060E00E94630A84E594E00E9442
:1016F0007F0A82E060E00E94630A85E694E00E942F
:101700007F0A83E060E00E94630A86E794E00E941B
:101710007F0A8BE290E06FEF0E945810839BFECF10
:101720000E94590A80E060E00E94630A87E894E022
:101730000E947F0A8FEF9EE9A4E281509040A04072
:10174000E1F700C00000E0E0F0E0099508950E9494
:10175000590A80E060E00E94630A88E994E00E94F0
:101760007F0A81E060E00E94630A8AEA94E00E94B6
:101770007F0A82E060E00E94630A8BEB94E00E94A3
:101780007F0A83E060E00E94630A89EC94E00E9493
:101790007F0A8FEF9DE3A9E481509040A040E1F7DC
:1017A00000C0000008954F925F926F927F928F92D7
:1017B0009F92AF92BF92CF92DF92EF92FF920F93E0
:1017C0001F93CF93DF936B017C0149015A010E9463
:1017D000590A80E060E00E94630A8AED94E00E946A
:1017E0007F0A81E060E00E94630A10E0E801CC0F0C
:1017F000DD1FCE01800F911F880F991F880F991F41
:1018000086579C4F0E947F0A82E060E00E94630A34
:101810008BEE94E00E947F0AC701B60120E030E021
:101820004AE754E40E94410E0E940C0B8EEE94E0B5
:101830000E947F0A83E060E00E94630A0F2EF2EFAD
:101840006F2EF4E07F2EF02DC3010E947F0AC501A8
:10185000B4010E940C0B0F2EF9EF4F2EF4E05F2E17
:10186000F02DC2010E947F0A8FEF93EDA0E381501B
:101870009040A040E1F700C000000E94590A80E0BB
:1018800060E00E94630A0C0F1D1FF801EE0FFF1F9E
:10189000EE0FFF1FE657FC4F6085718582859385AB
:1018A0000E94A90E0E948E0A8EEF94E00E947F0A89
:1018B00081E060E00E94630A86E095E00E947F0A72
:1018C000C701B6010E940C0B8EE095E00E947F0AD2
:1018D00082E060E00E94630AC3010E947F0AC501A2
:1018E000B4010E940C0BC2010E947F0A83E060E0F9
:1018F0000E94630A81E195E00E947F0A8FEF9DE3D9
:10190000A9E481509040A040E1F700C00000DF91C1
:10191000CF911F910F91FF90EF90DF90CF90BF90EC
:10192000AF909F908F907F906F905F904F900895B1
:10193000CF92DF92EF92FF920F930E949509982F1A
:101940009153953038F49093840510928B05109242
:101950008A0528C18434C9F5C0908C05D0908D05C6
:10196000E0908E05F0908F05C701B60120E030E0D1
:1019700040E85FE30E948C0F181614F52091900543
:10198000309191054091920550919305C701B601A0
:10199000009184050E94340660918C0570918D053C
:1019A00080918E0590918F05209190053091910541
:1019B0004091920550919305009184050E94D30BAC
:1019C00010928B0510928A05EDC0833239F40E9483
:1019D000FF0810928B0510928A05E4C0813469F5E6
:1019E00080918A0590918B05019690938B05809349
:1019F0008A05823091050CF4D5C010928B051092A7
:101A00008A050E944900009709F4CCC081E08093C8
:101A100085050E94590A80E060E00E94630A82E224
:101A200095E00E947F0A8FEF9EE9A4E281509040EA
:101A3000A040E1F700C00000B5C0809194059091EE
:101A400095050196909395058093940585309105B1
:101A5000D4F010929505109294050E944B09609362
:101A60008C0570938D0580938E0590938F050E9451
:101A70004608DC01CB018093900590939105A093DB
:101A80009205B093930580E060E00E94630A809124
:101A9000840590E09C01220F331F820F931F880F53
:101AA000991F880F991F86579C4F0E947F0A83E3D6
:101AB00095E00E947F0A8091840590E0FC01EE0F82
:101AC000FF1F8E0F9F1FFC01EE0FFF1FEE0FFF1F6A
:101AD000E657FC4F60857185828593850E94A90E2B
:101AE0000E948E0A85E395E00E947F0A81E060E013
:101AF0000E94630A8BEE94E00E947F0A60918C053D
:101B000070918D0580918E0590918F050E940C0B30
:101B10008AE395E00E947F0A82E060E00E94630A07
:101B200082EF94E00E947F0A609190057091910588
:101B300080919205909193050E94A90E0E948E0AB1
:101B400082E495E00E947F0A83E060E00E94630ADD
:101B5000C0908C05D0908D05E0908E05F0908F059B
:101B6000C701B60120E030E040E85FE30E943D0E8F
:101B700088232CF48BE495E00E947F0A13C0C701F0
:101B8000B60120E030E44CE955E40E948C0F882334
:101B90002CF08CE595E00E947F0A04C08DE695E06C
:101BA0000E947F0A0F91FF90EF90DF90CF900895F1
:101BB0005058BB27AA270ED075C166D130F06BD123
:101BC00020F031F49F3F11F41EF45BC10EF4E09558
:101BD000E7FB51C1E92F77D180F3BA17620773078A
:101BE0008407950718F071F49EF58FC10EF4E09507
:101BF0000B2EBA2FA02D0B01B90190010C01CA01C7
:101C0000A0011124FF27591B99F0593F50F4503E71
:101C100068F11A16F040A22F232F342F4427585F63
:101C2000F3CF469537952795A795F0405395C9F77B
:101C30007EF41F16BA0B620B730B840BBAF0915033
:101C4000A1F0FF0FBB1F661F771F881FC2F70EC0D2
:101C5000BA0F621F731F841F48F4879577956795A5
:101C6000B795F7959E3F08F0B3CF9395880F08F08E
:101C70009927EE0F979587950895D9D008F481E0BC
:101C800008950CD00FC107D140F0FED030F021F400
:101C90005F3F19F0F0C0511139C1F3C014D198F36E
:101CA0009923C9F35523B1F3951B550BBB27AA27DD
:101CB00062177307840738F09F5F5F4F220F331F4F
:101CC000441FAA1FA9F333D00E2E3AF0E0E830D01B
:101CD00091505040E695001CCAF729D0FE2F27D01E
:101CE000660F771F881FBB1F261737074807AB07EC
:101CF000B0E809F0BB0B802DBF01FF2793585F4F61
:101D00002AF09E3F510568F0B6C000C15F3FECF37A
:101D1000983EDCF3869577956795B795F7959F5F25
:101D2000C9F7880F911D9695879597F90895E1E079
:101D3000660F771F881FBB1F621773078407BA07D8
:101D400020F0621B730B840BBA0BEE1F88F7E09533
:101D5000089504D06894B111D9C00895BCD088F01A
:101D60009F5790F0B92F9927B751A0F0D1F0660F87
:101D7000771F881F991F1AF0BA95C9F712C0B130A2
:101D800081F0C3D0B1E00895C0C0672F782F8827B5
:101D9000B85F39F0B93FCCF3869577956795B395E1
:101DA000D9F73EF490958095709561957F4F8F4F50
:101DB0009F4F0895E89409C097FB3EF49095809555
:101DC000709561957F4F8F4F9F4F9923A9F0F92F01
:101DD00096E9BB279395F695879577956795B7957F
:101DE000F111F8CFFAF4BB0F11F460FF1BC06F5F65
:101DF0007F4F8F4F9F4F16C0882311F096E911C077
:101E0000772321F09EE8872F762F05C0662371F097
:101E100096E8862F70E060E02AF09A95660F771FAB
:101E2000881FDAF7880F9695879597F90895990F87
:101E30000008550FAA0BE0E8FEEF16161706E80794
:101E4000F907C0F012161306E407F50798F0621BB5
:101E5000730B840B950B39F40A2661F0232B242B8A
:101E6000252B21F408950A2609F4A140A6958FEFA9
:101E7000811D811D089597F99F6780E870E060E0FB
:101E800008959FEF80EC089500240A941616170613
:101E900018060906089500240A941216130614065B
:101EA00005060895092E0394000C11F4882352F0BE
:101EB000BB0F40F4BF2B11F460FF04C06F5F7F4F76
:101EC0008F4F9F4F089557FD9058440F551F59F05D
:101ED0005F3F71F04795880F97FB991F61F09F3F17
:101EE00079F087950895121613061406551FF2CF40
:101EF0004695F1DF08C0161617061806991FF1CF90
:101F000086957105610508940895E894BB276627B6
:101F10007727CB0197F908958ADF08F48FEF0895AA
:101F20000BD0C0CFB1DF28F0B6DF18F0952309F051
:101F3000A2CFA7CF1124EACFC6DFA0F3959FD1F39C
:101F4000950F50E0551F629FF001729FBB27F00D67
:101F5000B11D639FAA27F00DB11DAA1F649F6627BC
:101F6000B00DA11D661F829F2227B00DA11D621F0B
:101F7000739FB00DA11D621F839FA00D611D221FC5
:101F8000749F3327A00D611D231F849F600D211DA9
:101F9000822F762F6A2F11249F5750408AF0E1F04C
:101FA00088234AF0EE0FFF1FBB1F661F771F881F95
:101FB00091505040A9F79E3F510570F05CCFA6CFDD
:101FC0005F3FECF3983EDCF3869577956795B79580
:101FD000F795E7959F5FC1F7FE2B880F911D9695AA
:101FE000879597F90895AA1BBB1B51E107C0AA1F4B
:101FF000BB1FA617B70710F0A61BB70B881F991FAA
:102000005A95A9F780959095BC01CD01089597FB4D
:10201000092E05260ED057FD04D014D00AD0001C7E
:1020200038F450954095309521953F4F4F4F5F4F75
:102030000895F6F790958095709561957F4F8F4F35
:102040009F4F0895A1E21A2EAA1BBB1BFD010DC0D4
:10205000AA1FBB1FEE1FFF1FA217B307E407F50758
:1020600020F0A21BB30BE40BF50B661F771F881F34
:10207000991F1A9469F760957095809590959B01CA
:10208000AC01BD01CF010895E199FECF9FBB8EBB8E
:10209000E09A99278DB30895A6E1B0E044E050E0BE
:1020A0000C947D10A8E1B0E042E050E00C947D106B
:1020B000262FE199FECF9FBB8EBBE09A01970DB210
:1020C000021631F02DBB0FB6F894E29AE19A0FBEDA
:1020D00008950396272F0E9459100E945810252F0B
:1020E0000E945910242F0C9459100196272F0E94FA
:1020F00059100C945810DC01CB01FC01E199FECF82
:1021000006C0FFBBEEBBE09A31960DB20D92415076
:0A2110005040B8F70895F894FFCF8F
:10211A00202041444D494E204C4F47494E20202013
:10212A0000456E7465722070617373776F72643ADA
:10213A0020005F5F5F5F20202020202020202020B9
:10214A00202000433D43616E63656C2020202020DF
:10215A00202020002057726F6E672070617373779A
:10216A006F72642100204163636573732064656E36
:10217A00696564202000204E6F20686973746F724D
:10218A0079207965742000543A002F00573A0020CC
:10219A0067202000503A00204547500053656C657F
:1021AA0063742066727569743A20202000313D41BB
:1021BA0070706C6520323D42616E616E6100333D24
:1021CA004F72616E6765343D4772617065730035A1
:1021DA003D4D616E676F20413D4261636B20200077
:1021EA0043757272656E743A004E65772070726933
:1021FA0063653A20202020202000413D43616E6320
:10220A00656C20443D436F6E6669726D00204547D8
:10221A00502F6B67005361766564212020202020AF
:10222A00202020202000536574205363616C6520B0
:10223A00466163746F720043757272656E743A20F8
:10224A0020202020202020004E65773A20202020C0
:10225A002020202020202020002020202020202094
:10226A002020202000466163746F723A20202020CB
:10227A0020202020200053657474696E67205A65F7
:10228A00726F202020200052656D6F766520616C88
:10229A006C202020202020007765696768742066FA
:1022AA00726F6D2020202020007363616C6520709E
:1022BA00726573732044202020005A65726F207360
:1022CA006574212020202020202000536176656437
:1022DA0020746F206D656D6F727920004E657720CE
:1022EA0070617373776F72643A20202000456E74B0
:1022FA006572203420646967697473202000413D47
:10230A0043616E63656C202020202020202000433A
:10231A006F6E6669726D3A202020202020202000EE
:10232A0050617373776F72647320646F6E742020C8
:10233A00006D617463682120547279206167616954
:10234A006E0050617373776F7264206368616E67A1
:10235A00656400436C65617220686973746F727991
:10236A003F202000414C4C2064617461206C6F73E3
:10237A00742120200044203D20636F6E6669726DCF
:10238A00202020202020200041203D2063616E6310
:10239A00656C202020202020202000486973746F5B
:1023AA00727920636C65617265642100416C6C20EE
:1023BA00736C6F7473206672656520200041444D0A
:1023CA00494E204D454E5520413D457869740031AE
:1023DA003D4869737420323D5072696365730033F6
:1023EA003D43616C696220343D5A65726F00353D28
:1023FA005061737320363D436C65617200204578E5
:10240A006974696E672041646D696E2020003132FB
:10241A0033340000C841000070410000A0410000B0
:10242A00344200000C420000C84100007041000024
:10243A00A0410000344200000C424170706C6520DB
:10244A0020200000C84142616E616E6120200000B8
:10245A0070414F72616E676520200000A04147728B
:10246A00617065732020000034424D616E676F20F1
:10247A00202000000C42506C656173652077616909
:10248A00742E2E2E20200043616C63756C61746972
:10249A006E67207A65726F00446F206E6F742074C5
:1024AA006F7563682020202000746865207363615B
:1024BA006C6521202020202020005A65726F20732D
:1024CA006574212020202020202000506C61636543
:1024DA00207765696768742E2E2E20005208B4434F
:1024EA003132334134353642373839432A3023447E
:1024FA0020670020464143544F52592052455345C4
:10250A00542020002052656D6F7665206A756D70C3
:10251A00657220200020746F20636F6E74696E7577
:10252A00652020202000202020202020202020207C
:10253A0020202020202000202052657374617274AC
:10254A00696E672E2E2E20002020776569676874D1
:10255A00205363616C6520202000202041546D6562
:10256A006761333220763120202000202042793AD8
:10257A00207465616D2020200020205374617274DC
:10258A00696E672E2E2E2020200020204672756943
:10259A0074205363616C6520202000573A00206B39
:1025AA006700546F74616C3A00204547500020451B
:1025BA0047502F6B67005765696768743A00206750
:1025CA000020205468616E6B20796F7521202020CD
:1025DA0020002057656C636F6D652041646D696EDC
:1025EA00212000200045475020002067202020207D
:1025FA002000204547502020202000456D70747926
:10260A0020312D3520667275697420002020212121
:10261A00204F5645524C4F414420212100537461AA
:0E262A00626C65204420746F20736176650039
:00000001FF
